:020000040800F2
:100000002052002029020008592500085125000827
:100010005525000821050008C92E00080000000031
:10002000000000000000000000000000B1260008F1
:100030003D0500080000000061250008E1260008D9
:10004000430200084302000843020008430200087C
:10005000430200084302000843020008430200086C
:10006000430200084302000843020008430200085C
:10007000430200084302000843020008430200084C
:10008000430200084302000843020008430200083C
:10009000430200084302000843020008430200082C
:1000A00043020008C9270008430200084302000871
:1000B000430200084302000843020008430200080C
:1000C00043020008430200084302000843020008FC
:1000D00043020008B12E0008430200084302000852
:1000E00043020008430200084302000843020008DC
:1000F00043020008430200084302000843020008CC
:1001000043020008430200084302000843020008BB
:1001100043020008430200084302000843020008AB
:1001200043020008430200082505000843020008B6
:100130004302000800000000000000004302000825
:10014000430200084302000843020008430200087B
:10015000430200084302000831050008430200087A
:10016000430200084302000843020008430200085B
:1001700043020008430200080000000000000000E5
:10018000430200084302000800F002F800F03CF8C7
:100190000AA090E8000C82448344AAF10107DA45E2
:1001A00001D100F031F8AFF2090EBAE80F0013F0F8
:1001B000010F18BFFB1A43F0010318479C670000AA
:1001C000BC670000103A24BF78C878C1FAD852073B
:1001D00024BF30C830C144BF04680C6070470000C1
:1001E0000023002400250026103A28BF78C1FBD840
:1001F000520728BF30C148BF0B6070471FB506F0DB
:100200006DFB1FBD10B510BD00F04FF91146FFF793
:10021000F5FF03F0BDFC00F06DF903B4FFF7F2FF4A
:1002200003BC00F075F90000094880470948004701
:10023000FEE7FEE7FEE7FEE7FEE7FEE7FEE7FEE796
:10024000FEE7FEE704480549054A064B70470000F3
:10025000B527000889010008204C0020205200200A
:10026000204E0020204E002053EA020C00F069804E
:100270002DE9F04B4FF00006002B1FBFB3FA83F5BA
:1002800003FA05F424FA05F65E4012BF1643B2FAEB
:1002900082F502FA05F4C5F120051EBF22FA05FC1D
:1002A00044EA0C04203556EA044C4FEA144418BFC3
:1002B000641C4FF000084FF00009904271EB030CF2
:1002C00039D3002919BFB1FA81F701FA07F6B0FA5C
:1002D00080F700FA07F6C7F120071EBF20FA07FCD7
:1002E00046EA0C062037B6FBF4FCA7EB0507103FE7
:1002F00007F01F0BCBF120062CFA06F60CFA0BFBCD
:1003000044BFB3460026202FA4BF5E464FF0000B2B
:100310005BEA060C08BF4FF0010B19EB0B0948EB29
:100320000608ABFB027C06FB02CC0BFB03CCC01B1C
:1003300071EB0C01C1E70B46024641464846BDE859
:10034000F08B13B5084318BF4FF0FF300146AFF3F1
:100350000080BDE81C407047032A40F2308010F056
:10036000030C00F0158011F8013BBCF1020F624450
:1003700098BF11F801CB00F8013B38BF11F8013BE1
:10038000A2F1040298BF00F801CB38BF00F8013B8E
:1003900011F0030300F05780083AC0F0088051F8CC
:1003A000043B083A51F804CBA0E80810F5E7121D09
:1003B0005CBF51F8043B40F8043BAFF30080D20728
:1003C00024BF11F8013B11F801CB48BF11F8012BF4
:1003D00024BF00F8013B00F801CB48BF00F8012B17
:1003E000704702F0FF0343EA032242EA024200F0B0
:1003F00002B84FF0000200B51346944696462039E5
:1004000022BFA0E80C50A0E80C50B1F12001BFF4CD
:10041000F7AF090728BFA0E80C5048BF0CC05DF833
:1004200004EB890028BF40F8042B08BF704748BF81
:1004300020F8022B11F0804F18BF00F8012B7047F5
:1004400070477047704710B5203AC0F00B80B1E894
:100450001850A0E81850B1E81850A0E81850203AF9
:10046000BFF4F5AF5FEA027C24BFB1E81850A0E802
:10047000185044BF18C918C0BDE810405FEA827C1C
:1004800024BF51F8043B40F8043B08BF7047D20733
:1004900028BF31F8023B48BF11F8012B28BF20F8D4
:1004A000023B48BF00F8012B7047754600F02CF85E
:1004B000AE4605006946534620F00700854618B051
:1004C00020B5FFF7BFFEBDE820404FF000064FF01B
:1004D00000074FF000084FF0000BAC46ACE8C00935
:1004E000ACE8C009ACE8C009ACE8C00921F00701DC
:1004F0008D46704710B50446AFF300802046BDE836
:100500001040FFF78ABE0000004870471800002026
:1005100001491820ABBEFEE726000200704700002C
:10052000FEE7000040F24820C2F2000000F068B888
:1005300040F2A820C2F2000000F062B8704700004C
:10054000EFF3108072B600BFFEE7000070B5866D55
:10055000044600F011FB94F83510022928D1054615
:100560002068216C026822F016020260426922F0C3
:100570008002426109B9A16C19B1016821F008013A
:100580000160016821F00101016000BF206800687E
:10059000C00715D000F0F0FA401B0628F6D3202043
:1005A0006065032084F83500002184F8341070BDA4
:1005B000802060650120002184F8341070BD00BFE8
:1005C000E06D3F2101FA00F0B060012084F83500B1
:1005D0000020002184F8341070BD000090F8351020
:1005E000022909D1052180F835100068016821F041
:1005F00001010160002070478021416501207047A2
:10060000F0B581B004460020009040F21000C2F224
:1006100000000268D4E9166048F2B5133768082173
:10062000C1F64E3381403942A2FB03250CD022682B
:1006300013685B0708D5136823F004031360B160E7
:10064000616D41F00101616501218140394208D0AD
:1006500022685269120604D5B160616D41F0020151
:10066000616504218140394208D0226812689207EE
:1006700004D5B160616D41F00401616510218140D4
:10068000394217D020680268120713D5B16002689A
:100690000168520308D4C90508D4016821F0080193
:1006A0000160216C21B905E008033FD4216C09B138
:1006B00020468847E16D202000FA01F23A4241D0FD
:1006C00020680368DB063DD5B26094F835300268D7
:1006D000052B1BD122F016020260426922F0800233
:1006E0004261226C0AB9A26C1AB1026822F00802B7
:1006F00002603F208840B060012084F83500216D01
:100700000020002984F8340052D157E001685203D8
:1007100010D4C90512D4016821F010010160012034
:1007200084F83500002084F8340007E0A16C00292B
:10073000BED1BFE7080301D4616C00E0E16B09B1F1
:1007400020468847606DC8B3606DC0072ED0052075
:1007500084F835002068A90A026822F001020260CC
:10076000009A01328A4200921AD80268D20717D042
:10077000009A01328A42009212D80268D2070FD042
:10078000009A01328A4200920AD80268D20707D042
:10079000009A01328A42009202D80268D207DFD161
:1007A000012084F83500002084F83400E16C29B180
:1007B000204601B0BDE8F040084700BF01B0F0BDE1
:1007C0002DE9F041044600F0D7F9ECB105460220CE
:1007D00084F835000020216884F83400086820F08F
:1007E0000100086021680868C00711D000F0C4F952
:1007F000401B0528F6D9032520230320636584F8D0
:100800003550BDE8F08100BF0120BDE8F08100BF98
:10081000086848F23F02CFF21002D4E9013500EA3D
:10082000020C04F10C0898E8C10143EA0C032B43C5
:100830001843D4E9072E304338431043626A40EA34
:100840000E00042A40EA08031CD1206BD4E90A2ECA
:1008500040EA0E00184308604869BEF1000F20F01E
:10086000030040EA020040F0040C11D0B8F5005F2C
:1008700036D0B8F1000F45D1022A46D0012A3BD02C
:1008800032B942E00B60486920F0070040EA020CF0
:1008900001F0F8004AF6AB221038CAF6AA22A0FBF3
:1008A00002231A0946F61813C0F600039A5C40F2B8
:1008B000FF335F284FF03F00C1F814C021EA030165
:1008C00000FA02F088BF0431C4E9161288600023E0
:1008D00001250020636584F83550BDE8F08100BF34
:1008E000032AD5D8012540230120DFE802F0030EBA
:1008F000030500BF82E700BFAEF1C070B0FA80F020
:10090000400904E0032A04D3C2D1CEF300600028DA
:10091000BED0012540230120636584F83550BDE831
:10092000F081000070B590F834C0BCF1010F46D0E2
:100930004FF0010C80F834C0D0F858E090F835C082
:10094000BCF1010F38D14FF0020C80F835C04FF0E8
:10095000000CC0F854C0D0F800C08468056CC06DAD
:10096000DCF80060402C26F48026CCF80060CCF83F
:1009700004300B4604BF13460A463F2101FA00F03B
:10098000CCF80830CCF80C20CEF80800DCF80000D9
:1009900040F01600CCF800002DB1DCF8000040F06B
:1009A0000800CCF80000DCF8000040F00100CCF8B2
:1009B0000000002070BD00BF002180F8341002202C
:1009C00070BD00002DE9F04F82B000F13E4241F6CB
:1009D000004502F1FF77C4F20205082243F6004EFB
:1009E0004FEAB726A84208BF0722C4F2010E072E1D
:1009F00038BF4FEAB7220125002600274FF0000834
:100A0000009208E008F101080437B8F1100F06F170
:100A1000020600F0A7800C6805FA08F914EA090F2D
:100A2000F0D0D1F804B003220BF0030CACF10104B8
:100A3000B240012C6FEA020A10D88268CC6802EA40
:100A40000A02B440224382604268CBF3001422EAD7
:100A5000090204FA08F42243426005E0BCF1030FE6
:100A600002D14FF0030C20E0C2688C6802EA0A024F
:100A7000B4402243BCF1020FC26016D16FF00302F2
:100A800002EA58020244D2F820C007F01C050F23E6
:100A90000C69AB402CEA030304FA05F52B431362FF
:100AA000D1F804B001250BF0030C02680CFA06F330
:100AB00002EA0A021A431BF4403F0260A2D000225D
:100AC00043F644030192C4F202031A684FF6084C3D
:100AD00042F480421A601A68CFF6FF7C02F480422A
:100AE0000192019A28F00302724452F80C3007F088
:100AF0000C050F24AC40A343009C04FA05F52B43DE
:100B000042F80C30DEF808204B6842EA090543F64B
:100B10000C4CDC0258BF22EA0905CEF80850C4F29A
:100B2000010CDCF800209C0242EA090558BF22EAC9
:100B30000905CCF80050DEF804209C0342EA0905C0
:100B400058BF22EA0905CEF80450DEF80020DB0386
:100B500042EA090558BF22EA0905CEF800500125EE
:100B600050E700BF02B0BDE8F08F0000002A08BFC8
:100B7000090481617047000044F22050C2F2000075
:100B80000068704740F2080044F22051C2F20000B1
:100B9000C2F2000100780A68104408607047000043
:100BA00080B543F60040C4F20200016841F40071D0
:100BB0000160016841F480610160016841F4807165
:100BC0000160032000F0C4F80F2000F005F800F0E9
:100BD0005DF8002080BD0000B0B586B0002543F66A
:100BE00044010195C4F202010A68044642F0010280
:100BF0000A60096801A801F00101019101996946A3
:100C000000F066F900F098F94DF683614000C4F2F7
:100C10001B31A0FB01014FF0FF3000EB914140F28E
:100C200060300022C2F20000C4F2010240F2E73359
:100C3000C0E90021C0E902530561856100F0A0FD13
:100C4000054618B1284606B0B0BD00BF40F260307E
:100C5000C2F2000000F0C4FD05460028F2D11920C0
:100C600000F036F80F2C0DD819202146002200255F
:100C700000F042F840F20C00C2F200000460284686
:100C800006B0B0BD0125284606B0B0BD82B0002038
:100C900043F640010190C4F202014A6842F48042E6
:100CA0004A604A6802F480420192019A0090086802
:100CB000002240F08050086008680F2100F080504A
:100CC000009000986FF0010002B000F015B800002D
:100CD000002848BF7047C1B200F01F00012202FA8D
:100CE00000F04EF20012CEF2000242EAD10121F0F1
:100CF000030108607047000010B54EF60C5CCEF2A0
:100D0000000CDCF80030C3F3022E8EF00704042C34
:100D100028BF0424BEF103034FF0FF3E0EFA04F493
:100D200038BF0023A14399400EFA03F39A431143BD
:100D300000F00F0200F160430901043A03F5644337
:100D40006244002848BF02F10C03197010BD000076
:100D50004EF60C51CEF200010A684FF6FF031A401E
:100D600060F30A2242F0806040F0FD700860704736
:100D70002DE9F041002800F08B8043F60808C4F20A
:100D800002080446D8F8F8030D4600F00700884230
:100D900007D288F8F853D8F8F80300F00700A84203
:100DA00076D12068810717D5410705D5D8F80010FE
:100DB00041F4E051C8F80010010705D5D8F800103B
:100DC00041F46041C8F80010D8F80010A26821F082
:100DD000F0011143C8F80010C0073FD1D8F8F8035C
:100DE00000F00700A84207D988F8F853D8F8F803AC
:100DF00000F00700A8424BD12068410707D5D8F87A
:100E00000010E26821F4E0511143C8F80010000717
:100E100008D5D8F80000216920F4604040EAC100FC
:100E2000C8F8000000F09CF8D8F8001046F6001250
:100E3000C1F30311C0F60002515C40F2100220FA27
:100E400001F140F20C00C2F200000068C2F20002A0
:100E50001160FFF7C1FE0020BDE8F0816068811ECF
:100E6000022907D258F8081C89015CBF0120BDE89F
:100E7000F08111E0012807D158F8081C89035CBFF4
:100E80000120BDE8F08107E058F8081C890703D469
:100E90000120BDE8F08100BFD8F8001021F0030167
:100EA0000843C8F80000FFF767FE064641F288379E
:100EB000D8F80000616800F00C00B0EB810F8DD015
:100EC000FFF75AFE801BB842F2D90320BDE8F0813B
:100ED0000F22026043F60802C4F20202136803F014
:100EE00003034360136803F0F0038360136803F4A3
:100EF000E053C360D2F800C04FF4E05303EADC03D0
:100F00000361D2F8F80300F00700086070470000A2
:100F100040F2100043F60801C2F20000C4F20201E0
:100F20000068096846F61012C1F38221C0F600027B
:100F3000515CC8407047000040F2100043F60801C1
:100F4000C2F20000C4F202010068096846F61012FD
:100F5000C1F34231C0F60002515CC8407047000046
:100F600010B543F60404C4F20204606800F00C01FA
:100F700042F200400829C0F2F40007D0042918BF4B
:100F800010BD41F20020C0F27A0010BD216801F0CE
:100F90003F02216823684902C3F3881106D4A1FBEC
:100FA00000010023FFF760F907E000BF41F20020D5
:100FB000C0F27A004843B0FBF2F021680222C1F38C
:100FC000014102EB4101B0FBF1F010BD2DE9F04110
:100FD00082B0002868D00446007843F60006C007B7
:100FE000C4F202060BD0B06800F00C00042840F0F8
:100FF0009F803068800302D56068002854D0207834
:1010000080071AD5B06810F00C0F09D0B06800F056
:101010000C00082840F0A6807068400200F1A28011
:101020003068800702D5E06801283DD13068216929
:1010300020F0F80040EAC10030602078000737D483
:10104000207840074CD4A56955B3B06800F00C0077
:10105000082840F0BB80012D26D07068E16900F4BB
:1010600080028A4220D1216A00F03F028A421BD1CD
:1010700047F6C071626A0140B1EB821F14D1A16AC8
:101080004FF6FF73C903994300F44032A1F5803154
:101090008A4209D1E16A00F07060B0EB016F03D1C0
:1010A000002002B0BDE8F081012002B0BDE8F0816F
:1010B0006069002840F20000C4F2472076D0012188
:1010C000C0F8801EFFF758FD054600BF706F80070F
:1010D000B6D4FFF751FD401B0228F7D9DDE000BF71
:1010E000306C10F080580AD100200190306C40F034
:1010F00080503064306C00F080500190019847F2CD
:101100000007C4F200073868C00541D4386840F4CD
:1011100080703860FFF730FD054600BF3868C005B5
:1011200036D4FFF729FD401B0228F7D9B5E000BFF0
:10113000B06800F00C00082803D1706840023FF549
:1011400058AF6068B0F5803F07D0B0F5A02F40F0F1
:101150008D80306840F480203060306840F480300A
:1011600030608DE0E068002852D00020C4F24720B3
:1011700001210160FFF700FD054600BF30688007D0
:101180003FF554AFFFF7F8FC401B0228F6D984E086
:10119000A068012805D005284ED1306F40F004002A
:1011A0003067306F40F0010030674FE00021C0F839
:1011B000801EFFF7E1FC0546706F80077FF540AFAA
:1011C000FFF7DAFC401B0228F6D966E00027C4F2DC
:1011D000472700203866FFF7CFFC022D05460BD1CC
:1011E000306880015ED5FFF7C7FC401B02284FF036
:1011F0000300F5D955E700BF306880017FF550AF97
:10120000FFF7BAFC401B02284FF00300F4D948E76F
:101210000020C4F2472000210160FFF7ADFC054625
:10122000306880077FF509AFFFF7A6FC401B022856
:101230004FF00300F4D934E7316F002821F00101A9
:101240003167316F21F0040131674DD0FFF794FC15
:10125000054641F2883700BF306F800756D4FFF74C
:101260008BFC401BB842F7D917E000BF316800285B
:1012700021F480313160316821F4802131604FD018
:10128000FFF77AFC054600BF306880033FF5B7AE34
:10129000FFF772FC401B6428F6D9032002B0BDE8BA
:1012A000F08100BF04F11C052FCD084340EA8210F5
:1012B000D9034FF6FF729143A1F5803140EA0560F2
:1012C0000843706001203866FFF756FC044600BFF3
:1012D000306880013FF5E4AEFFF74EFC001B0228AA
:1012E0004FF00300F4D9DCE6FFF746FC054641F277
:1012F000883700BF306F800708D5FFF73DFC401BE3
:10130000B8424FF00300F5D9CBE600BFB8F1000FAB
:101310007FF499AE306C20F08050306493E600BFCB
:10132000FFF72AFC054600BF306880037FF567AEF3
:10133000FFF722FC401B64284FF00300F4D9B0E60D
:1013400070B538B10446406A30B10020206104F124
:10135000140007E0012070BD6068B0F5827F03D003
:1013600004F11C00002101600026A66294F85100DF
:1013700020B9204684F8506000F03CF8022084F840
:10138000510094E80F0001F48271056802F40442F0
:1013900025F040050560114403F4006223691144FF
:1013A00003F002026369114403F00102A369E569D5
:1013B000114403F40072114405F03802256A114407
:1013C00005F08002A56A114305F400521143016043
:1013D000626A042101EA134102F0100211444160E3
:1013E000C16921F40061C1610120666584F8510082
:1013F000304670BD80B586B0016843F60000C4F287
:101400000000814202D006B080BD00BF002143F63B
:1014100030020191C4F20202136900F5E63043F490
:1014200080431361136903F480430193019B01918D
:10143000136843F002031360126802F00202019283
:10144000019A4FF4604201920222CDE90221032168
:1014500004910521059101A9FFF7B4FA06B080BDFA
:101460002DE9F04383B0044690F85000012803D1E1
:10147000022003B0BDE8F08301201E4615460F464A
:1014800084F85000FFF778FB94F851108146012949
:1014900040F09880002F4FF0010018BF002D00F0A1
:1014A0009E80002E00F09B8094F8510000210428BB
:1014B0001CBF052084F851006165A563E687A687F7
:1014C0002763E6862068A686216461640168490670
:1014D00003D4016841F0400101606168731EE26855
:1014E000B1FA81F1B3FA83F3DDF8288049095B0989
:1014F000B2F5006F41EA03017AD131B137F8021B2E
:10150000C1602763E08E0138E086012518F10100F3
:1015100031D101E0FFF730FBE08E18B9E08F0028F1
:1015200000F0D0802068816889070CD5E18E51B128
:10153000012D08D1216B002531F8022BC2602163F7
:10154000E18E0139E1868168C907E3D0E18F002986
:10155000E0D0C068A16B012521F8020BA163E08FE8
:101560000138E087D6E700BFFFF706FBA0EB0900D4
:10157000404580F0FD80E08E18B9E08F002800F033
:10158000A1802068816889070CD5E18E51B1012DB9
:1015900008D1216B002531F8022BC2602163E18E56
:1015A0000139E1868168C907DED0E18F0029DBD0EF
:1015B000C068A16B012521F8020BA163E08F0138FF
:1015C000E087D1E76068B0F5827F07D1A068002886
:1015D0004FF0020008BF042901D15BE7022001217E
:1015E00084F85110002184F8501003B0BDE8F08356
:1015F00039B139780173206B01302063E08E0138F6
:10160000E086012518F1010033D101E0FFF7B4FABB
:10161000E08E10B9E08F002854D0206881688907D7
:101620000ED5E18E61B1012D0AD1216B002509781B
:101630000173216B206801312163E18E0139E1865C
:101640008168C907E2D0E18F0029DFD0C068A16BB3
:1016500001250870A06B0130A063E08F0138E0879E
:10166000D4E700BFFFF788FAA0EB0900404580F0FF
:101670008180E08E08B9E08F20B3206881688907F7
:101680000ED5E18E61B1012D0AD1216B00250978BB
:101690000173216B206801312163E18E0139E186FC
:1016A0008168C907DED0E18F0029DBD0C068A16B5B
:1016B00001250870A06B0130A063E08F0138E0873E
:1016C000D0E700BF40F21000C2F20000006849F607
:1016D0008171C1F25E61A0FB0101480D4FF47A7186
:1016E000484302906068B0F5827F0FD12046802188
:1016F00042464B4600F066FF60B3606D40F020004C
:10170000606520206065012069E700BF029808B38A
:101710000298013802902068806800061AD5029865
:10172000C0B102980138029020688068000611D587
:10173000029878B10298013802902068806800060B
:1017400008D5029830B1029801380290206880686C
:101750000006DBD4A06800284FF000007FF43FAF04
:1017600001902168CA68019289680191019936E760
:10177000032034E7032032E7704700007047000081
:10178000002804BF0120704710B5044690F83D00C2
:1017900028B9002084F83C00204600F01FF8022001
:1017A00084F83D002068211D01F014F8012084F820
:1017B000460084F83E0084F83F0084F8400084F836
:1017C000410084F8420084F8430084F8440084F81F
:1017D000450084F83D00002010BD00007047000067
:1017E00090F83D1001291CBF01207047022180F8AC
:1017F0003D10006841F2FF72C168C4F200029042DD
:1018000041F00101C1600DDC40F2FF71C4F2000142
:10181000884215DCB0F1804F2AD040F20041C4F27A
:10182000000123E040F2FF31C4F20101884213DCE1
:1018300041F60001C4F20001884219D0002113E0F2
:1018400040F60001C4F20001884211D040F6004188
:10185000C4F200010AE000BF44F20001C4F2010139
:10186000884205D040F20041C4F20101884206D10D
:10187000816801F00701062904BF00207047016854
:1018800041F0010101600020704700007047000036
:1018900010B5016804460869800744BFC8685FEA5C
:1018A000807039D40869400744BFC8685FEA407057
:1018B0003ED40869000744BFC8685FEA007045D499
:1018C0000869C00644BFC8685FEAC0604AD40869B6
:1018D000C0071CBFC8685FEAC07051D10869000624
:1018E00044BFC8685FEA006052D40869400644BF3C
:1018F000C8685FEA406053D40869800646BFC8687C
:101900005FEA806010BD6FF0200220460A61BDE8EA
:101910001040FFF733BF00BF6FF0020008610120E5
:1019200020778869800743D02046FFF7AFFF45E066
:101930006FF00400086102202077886910F4407F6E
:1019400040D02046FFF7A2FF42E000BF6FF0080042
:10195000086104202077C86980073DD02046FFF742
:1019600095FF3FE06FF01000086108202077C869FC
:1019700010F4407F3AD02046FFF788FF3CE000BFDC
:101980006FF001000861204600F03EF82168A5E7ED
:101990006FF0800008612046FFF7EEFE2168A4E7A3
:1019A0006FF040000861204600F038F82168A3E796
:1019B000204600F025F8204600F024F82168002099
:1019C00020776FE7204600F01BF8204600F01AF859
:1019D0002168002020776CE7204600F011F82046AF
:1019E00000F010F821680020207769E7204600F019
:1019F00007F8204600F006F821680020207766E707
:101A0000704700007047000000680021C4F2010127
:101A1000884218BF7047FFF7B5B800007047000054
:101A20007047000010B504460068416994F83D20F5
:101A3000212A56D111F0800153D000BF206850E810
:101A4000050F216820F0800041E80502DAB1206826
:101A500050E8050F216820F0800041E8050292B1AE
:101A6000206850E8050F216820F0800041E8050259
:101A70004AB1206850E8050F216820F0800041E855
:101A80000502002ADAD1606B002818BFFEF75EFD60
:101A9000206850E8030F216820F0C00041E80302ED
:101AA000DAB1206850E8030F216820F0C00041E857
:101AB000030292B1206850E8030F216820F0C000B3
:101AC00041E803024AB1206850E8030F216820F082
:101AD000C00041E80302002ADAD1202084F83D004A
:101AE0002068406994F83E10222940F0A78010F049
:101AF000400000F0A38000BF206850E8050F216877
:101B000020F0400041E80502DAB1206850E8050FF6
:101B1000216820F0400041E8050292B1206850E8B9
:101B2000050F216820F0400041E805024AB1206815
:101B300050E8050F216820F0400041E80502002A26
:101B4000DAD1A06B002818BFFEF700FD206850E82E
:101B5000030F216820F4907041E80302BAB32068B3
:101B600050E8030F216820F4907041E8030272B33B
:101B7000206850E8030F216820F4907041E80302C8
:101B80002AB3206850E8030F216820F4907041E8E0
:101B90000302002ADAD11AE0206850E8050F216814
:101BA00020F0010041E80502DAB1206850E8050F95
:101BB000216820F0010041E8050292B1206850E858
:101BC000050F216820F0010041E805024AB12068B4
:101BD00050E8050F216820F0010041E80502002AC5
:101BE000DAD1206B012824D1206850E8030F216846
:101BF00020F0100041E80302DAB1206850E8030F3A
:101C0000216820F0100041E8030292B1206850E8FA
:101C1000030F216820F0100041E803024AB1206858
:101C200050E8030F216820F0100041E80302002A69
:101C3000DAD1202084F83E0000202063002010BD6F
:101C400070470000B0B582B0044600680168C36800
:101C5000426901F02F05202D03F0200506D12DB19A
:101C6000204602B0BDE8B04001F02AB85FEA017C2E
:101C70001EBF02F0010E03F4907212EB0E0253D15C
:101C8000226B012A05D111F0100218BF13F01002C7
:101C900036D10A0622D513F080021FD094F83D10E9
:101CA00021293FD1A168B1F5805F03D121690029C5
:101CB00000F07282216A4A1C226209784160E18C3C
:101CC00001390A04E1842DD1C16821F08001C1608D
:101CD000C16841F04001C16002B0B0BD490621D5E4
:101CE00013F040011ED0C16821F04001C1602021E5
:101CF000204684F83D1002B0BDE8B04000F024BC9E
:101D000000210191016801914168019101994069A7
:101D1000400613D4A08DE18DE28D002A18BF8842C1
:101D200040F0BE8102B0B0BDCA0718BF13F4807284
:101D300040F0BA804A0700F1BD80C2E0A16B08689C
:101D4000426893B2002BEDD0A08D8342EAD2E285A7
:101D5000C969B1F5807F00F09D80206850E8030FCD
:101D6000216820F4807041E80302DAB1206850E86D
:101D7000030F216820F4807041E8030292B12068CB
:101D800050E8030F216820F4807041E803024AB153
:101D9000206850E8030F216820F4807041E80302B6
:101DA000002ADAD1206850E8050F216820F00100F0
:101DB00041E80502DAB1206850E8050F216820F0FB
:101DC000010041E8050292B1206850E8050F216842
:101DD00020F0010041E805024AB1206850E8050FF3
:101DE000216820F0010041E80502002ADAD12068CC
:101DF00050E8050F216820F0400041E80502DAB103
:101E0000206850E8050F216820F0400041E80502F5
:101E100092B1206850E8050F216820F0400041E8A9
:101E200005024AB1206850E8050F216820F0400003
:101E300041E80502002ADAD1202084F83E00002083
:101E40002063206850E8030F216820F0100041E86B
:101E50000302DAB1206850E8030F216820F0100077
:101E600041E8030292B1206850E8030F216820F096
:101E7000100041E803024AB1206850E8030F2168CE
:101E800020F0100041E80302002ADAD1A06BFEF72F
:101E90005DFBA08DE18D401A81B2204602B0BDE805
:101EA000B040FFF7BDBD00BF226C42F001022264CA
:101EB0004A0706D5BEF1000F03D0226C42F00202A1
:101EC00022648A0706D5BEF1000F03D0226C42F0CF
:101ED00004022264BCF1000F09D545EA0E02B2FAF1
:101EE00082F2520903D1226C42F008022264226C71
:101EF000002A3FF417AF11F0200118BF002D03D0C6
:101F0000204600F0DDFE20684069216C00F04000B2
:101F100001F00801401800F0B58000BF206850E8CB
:101F2000030F216820F4907041E80302BAB32068DF
:101F300050E8030F216820F4907041E8030272B367
:101F4000206850E8030F216820F4907041E80302F4
:101F50002AB3206850E8030F216820F4907041E80C
:101F60000302002ADAD11AE0206850E8050F216840
:101F700020F0010041E80502DAB1206850E8050FC1
:101F8000216820F0010041E8050292B1206850E884
:101F9000050F216820F0010041E805024AB12068E0
:101FA00050E8050F216820F0010041E80502002AF1
:101FB000DAD1206B012824D1206850E8030F216872
:101FC00020F0100041E80302DAB1206850E8030F66
:101FD000216820F0100041E8030292B1206850E827
:101FE000030F216820F0100041E803024AB1206885
:101FF00050E8030F216820F0100041E80302002A96
:10200000DAD1202084F83E00002020632068406957
:1020100040063FD5206850E8050F216820F04000B9
:1020200041E80502DAB1206850E8050F216820F088
:10203000400041E8050292B1206850E8050F216890
:1020400020F0400041E805024AB1206850E8050F41
:10205000216820F0400041E80502002ADAD1A06B97
:10206000C0B142F61111C0F600010165FEF7B6FAE3
:1020700000283FF457AEA06B016D02B0BDE8B04040
:10208000084700BF2046FFF7DBFD0020206402B0B8
:10209000B0BD00BF204602B0BDE8B040FFF7D0BDE4
:1020A000401A216851E8031F226821F4907142E828
:1020B0000313DBB1216851E8031F226821F49071FA
:1020C00042E8031393B1216851E8031F226821F409
:1020D000907142E803134BB1216851E8031F226855
:1020E00021F4907142E80313002BDAD1216851E802
:1020F000051F226821F0010142E80513DBB12168C8
:1021000051E8051F226821F0010142E8051393B14F
:10211000216851E8051F226821F0010142E80513FA
:102120004BB1216851E8051F226821F0010142E806
:102130000513002BDAD1202184F83E100021216301
:10214000216851E8031F226821F0100142E80313BF
:10215000002B3FF4A1AE216851E8031F226821F053
:10216000100142E80313002B3FF496AE216851E8BA
:10217000031F226821F0100142E80313002B3FF4F3
:102180008BAE216851E8031F226821F0100142E85C
:102190000313002BD4D17FE6216A31F8022B6FF3B1
:1021A0005F22426021628AE5002804BF0120704757
:1021B00010B5044690F83D0028B9002084F83C0092
:1021C000204600F021F8242084F83D002068C168F2
:1021D00021F40051C160204600F0F2FD2068016941
:1021E00021F490410161416921F02A014161C168F6
:1021F00041F40051C16000202021206484F83D108A
:1022000084F83E1010BD00002DE9F04786B004466A
:10221000016841F20000C4F20100814202D006B020
:10222000BDE8F087002643F630010196C4F20201B2
:102230004A6946F2404842F010024A614A6900F594
:10224000704002F010020192019A01960A68C4F2ED
:10225000020842F001020A60096801F001010191DF
:1022600001994FF4C06101910221CDE902160321C9
:1022700004910721059101A9FEF7A4FB40F248252E
:10228000C2F200054FF0006A4FF480694FF4003746
:102290002846C5E9008AC5E90266C5E90496C5E98C
:1022A0000666C5E90876FEF78BFA002818BFFEF728
:1022B00047F9A563AC6340F2A82508F17800C2F2A3
:1022C00000054021C5E9000A05F1080080E8420246
:1022D0002846C5E90566C5E907676E62FEF770FA2C
:1022E000002818BFFEF72CF9252005210022656380
:1022F000AC63FEF701FD2520FEF7EAFC06B0BDE861
:10230000F087000070B582B0044690F83E002028A7
:102310000ED113460A4600294FF0010018BF002BCA
:1023200002D102B070BD00BF94F83C00012803D177
:10233000022002B070BD00BF012084F83C000026DE
:1023400022202663A262A385266484F83E002168C9
:10235000A06B42F6992C42F6F53E42F61D15C0F6EA
:10236000000CC0F6000EC0F600050431C0E90FCE27
:10237000C0E91356FEF7D6FA01962068016801916C
:10238000406801900198206984F83C6030B300BF38
:10239000206850E8030F216840F4807041E8030290
:1023A000E2B1206850E8030F216840F4807041E8F2
:1023B00003029AB1206850E8030F216840F480704E
:1023C00041E8030252B1206850E8030F216840F44D
:1023D000807041E80302002ADAD100BF206850E88B
:1023E000050F216840F0010041E80502E2B12068D4
:1023F00050E8050F216840F0010041E805029AB15C
:10240000206850E8050F216840F0010041E805020E
:1024100052B1206850E8050F216840F0010041E802
:102420000502002ADAD100BF206850E8050F2168B4
:1024300040F0400041E80502DAB1206850E8050F9D
:10244000216840F0400041E8050292B1206850E860
:10245000050F216840F0400041E805024AB12068BC
:1024600050E8050F216840F0400041E80502002ACD
:10247000DAD1002002B070BD704700007047000044
:1024800070B5044690F83D0020280BD100294FF08C
:10249000010055D0002A134608BF70BD94F83C00D7
:1024A000012801D1022070BD012084F83C000026E3
:1024B00021202162A384E384266484F83D002268FD
:1024C000606B42F6094C42F6B94E42F61D15C0F655
:1024D000000CC0F6000EC0F600050432C0E90FCEB5
:1024E000C0E91356FEF71EFA20686FF04001016044
:1024F00084F83C60206850E8050F216840F08000B7
:1025000041E80502F2B1206850E8050F216840F06B
:10251000800041E80502AAB1206850E8050F216853
:1025200040F0800041E8050262B1206850E8050FE4
:10253000216840F0800041E80502002ADAD100203D
:1025400070BD00BF002070BD7047000070470000E4
:10255000FEE70000FEE70000FEE7000000000000CC
:10256000EFF30980BFF36F8F154B1A681EF0100F41
:1025700008BF20ED108A20E9F04F10602DE9090016
:102580004FF0500080F31188BFF34F8FBFF36F8F70
:1025900002F0C0FE4FF0000080F31188BDE8090092
:1025A00019680868B0E8F04F1EF0100F08BFB0ECD3
:1025B000108A80F30988BFF36F8F704700BF00BF98
:1025C000C80000202DE9F04182B01E4690460D461D
:1025D0000446FEF7D1FA301A00EB0807FEF7CCFAF2
:1025E00040F21001C2F200010968C1F3CB31794316
:1025F000019121688A682A40AA4227D1064618F12B
:1026000001001FD0FEF7B8FA801BB84222D2019811
:1026100001990028A1F1010101912168896808BF91
:10262000074601EA0500A842ECD00FE08868284080
:10263000A8420BD188682840A84207D18868284062
:10264000A84203D188682840A842EFD0002002B0F9
:10265000BDE8F081D4E900014268B1F5827F22F043
:10266000E00242600AD1A168B1F5004F02D0B1F595
:10267000806F03D1016821F040010160A16AB1F5CA
:10268000005F07D1016821F400510160016841F445
:1026900000510160012084F85100002084F85000AE
:1026A000032002B0BDE8F08100000000000000003F
:1026B000074B19680868B0E8F04F80F30988BFF34A
:1026C0006F8F4FF0000080F31188704700BF00BF8C
:1026D000C80000204FF47A7001F01AFBFAE70000FE
:1026E00080B54EF21000CEF20000006803F076FBD9
:1026F000012808BF80BDBDE8804002F047BF000050
:10270000B0B592B0002443F64000CDE90A44CDE9CB
:1027100008440594CDE90344CDE901440094C4F292
:1027200002000168022541F080510160006800F05C
:1027300080500090009847F200000094C4F200001E
:10274000016841F480410160006800F4804000901D
:102750000098012006904FF4803007904FF48000DD
:102760000D9008200E904FF4A870CDE90F050420BD
:10277000119006A80C95FEF729FC28B1EFF3108004
:1027800072B600BFFEE700BF0F20CDE901054FF490
:10279000A05004904FF48050059001A805210394A7
:1027A000FEF7E6FA20B1EFF3108072B6FEE700BF45
:1027B00012B0B0BD4EF68850CEF20000016841F470
:1027C000700101607047000040F26030C2F200000A
:1027D000FFF75EB810B540F6FF3E0368C4F2000E86
:1027E00040F2004C7045C4F2010C27DCB0F1804F80
:1027F00031D040F20042C4F2000290422BD040F6A9
:102800000002C4F20002904225D041F6FF72C4F2E9
:102810000002904229DC70453CDCB0F1804F5FD073
:1028200040F20042C4F20002904259D040F6000249
:10283000C4F20002904253D056E000BF40F600427E
:10284000C4F20002904206D0604504D00022C4F2D7
:1028500001029042D9D14A6823F07003134341F634
:10286000FF72C4F200029042D5DD43F6FF72C4F25B
:102870000102904222DC42F20002C4F200029042C5
:102880002ED00022C4F20102904229D0604527D008
:102890002AE000BF40F60042C4F2000290421FD07E
:1028A00041F60002C4F20002904219D041F6004203
:1028B000C4F20002904213D016E000BF44F20002BE
:1028C000C4F2010290420BD044F60002C4F20102AD
:1028D000904205D044F20042C4F20102904203D17A
:1028E000CA6823F44073134323F080024B69D1F884
:1028F00000E08C681A430260C46240F48062C0F851
:1029000028E0624504BF096901630121416110BDEE
:10291000806B0021C185C184FFF792B9806B01688B
:102920004A6990F83D30212B2DD112F080022AD037
:102930000021C184016851E8031F026821F0C00131
:1029400042E80313DBB1016851E8031F026821F07C
:10295000C00142E8031393B1016851E8031F026804
:1029600021F0C00142E803134BB1016851E8031F95
:10297000026821F0C00142E80313002BDAD12021C4
:1029800080F83D100168496990F83E20222A40F005
:102990007D8011F0400179D00021C185016851E8A6
:1029A000031F026821F4907142E80313BBB301686E
:1029B00051E8031F026821F4907142E8031373B3D6
:1029C000016851E8031F026821F4907142E8031383
:1029D0002BB3016851E8031F026821F4907142E8AB
:1029E0000313002BDAD11AE0016851E8051F0268D1
:1029F00021F0010142E80513DBB1016851E8051F30
:102A0000026821F0010142E8051393B1016851E821
:102A1000051F026821F0010142E805134BB101686E
:102A200051E8051F026821F0010142E80513002B5F
:102A3000DAD1016B012924D1016851E8031F026832
:102A400021F0100142E80313DBB1016851E8031FD4
:102A5000026821F0100142E8031393B1016851E8C4
:102A6000031F026821F0100142E803134BB1016813
:102A700051E8031F026821F0100142E80313002B04
:102A8000DAD1202180F83E1000210163016C41F071
:102A900010010164FFF7D4B80168806B0968C905AB
:102AA00000F19F800021C185016851E8031F026881
:102AB00021F4807142E80313E3B1016851E8031F78
:102AC000026821F4807142E803139BB1016851E868
:102AD000031F026821F4807142E8031353B10168B7
:102AE00051E8031F026821F4807142E80313002BB0
:102AF000DAD100BF016851E8051F026821F0010129
:102B000042E80513BBB3016851E8051F026821F0D4
:102B1000010142E8051373B3016851E8051F02681B
:102B200021F0010142E805132BB3016851E8051FAC
:102B3000026821F0010142E80513002BDAD11AE006
:102B4000016851E8051F026821F0400142E80513C1
:102B5000DBB1016851E8051F026821F0400142E83D
:102B6000051393B1016851E8051F026821F0400187
:102B700042E805134BB1016851E8051F026821F0D6
:102B8000400142E80513002BDAD1202180F83E10E5
:102B9000016B012925D100BF016851E8031F0268BC
:102BA00021F0100142E80313DBB1016851E8031F73
:102BB000026821F0100142E8031393B1016851E863
:102BC000031F026821F0100142E803134BB10168B2
:102BD00051E8031F026821F0100142E80313002BA3
:102BE000DAD1016B012918BFFFF746BC818DFEF7D2
:102BF00017BF0000806B016B012918BFFFF73EBCB7
:102C0000818D4908FEF70CBF0168806B0968C90512
:102C100048BFFFF799BC0021C18400BF016851E89B
:102C2000051F026821F0800142E8051383B30168A3
:102C300051E8051F026821F0800142E805133BB30B
:102C4000016851E8051F026821F0800142E8051380
:102C5000F3B1016851E8051F026821F0800142E8E4
:102C60000513002BDAD113E0016851E8031F026855
:102C700041F0400142E80313002B08BF7047016890
:102C800051E8031F026841F0400142E8031393B189
:102C9000016851E8031F026841F0400142E8031354
:102CA0004BB1016851E8031F026841F0400142E85E
:102CB0000313002BD8D17047806BFFF747BC00008F
:102CC00081B090F83E10222921D183680246B3F5E5
:102CD000805F09D152F8281F52F8183C002B63D0AE
:102CE00003685B680AE000BF52F8281F13B9036944
:102CF000002BF5D003685B6803F07F030B7011684D
:102D000001311160C18D01390A04C18502D001B0C1
:102D1000704700BF0168CA6822F02002CA60CA6812
:102D200022F48072CA604A6922F001024A612021BD
:102D300080F83E10016B01293ED10021016300BFE4
:102D4000016851E8031F026821F0100142E80313F3
:102D5000DBB1016851E8031F026821F0100142E86D
:102D6000031393B1016851E8031F026821F01001B9
:102D700042E803134BB1016851E8031F026821F0D8
:102D8000100142E80313002BDAD101680A68D20669
:102D900006D5002200920A680092496800910099C5
:102DA000818D01B0FEF73CBE026852686FF35F226E
:102DB00021F8022B8162A5E701B0FFF75DBB00009F
:102DC00010B504460068D4E902C22369016921F400
:102DD000405111430161626943EA0C01E369114307
:102DE000C268194349F20C639A431143C1604169B7
:102DF000A26921F4407141F20043114340F4806222
:102E0000C4F201039A42416102D1FEF795F801E054
:102E1000FEF77EF8E16963681922B1F5004FA0FB67
:102E2000020123D15A00DB0FFDF71EFA48F21F51B1
:102E3000C5F2EB11A0FB01235A094FF69C73C0F6B3
:102E4000FF7303F1805302FB0300322303EBC00046
:102E5000A0FB01014FF4F87000EA111000EB021022
:102E6000C1F3421108442168886010BD9A009B0F8D
:102E7000FDF7FAF948F21F51C5F2EB11A0FB01234F
:102E80005A094FF69C73C0F6FF7302FB030032230E
:102E900003EB0010A0FB0101F02000EA511000EB51
:102EA0000210C1F3431108442168886010BD00007E
:102EB00080B540F27C00C2F20000FEF7C3FEBDE820
:102EC000804001F07FBE0000FEE7000082B001F00C
:102ED0005DFF642001210022002602F06FFB40F21A
:102EE000C03740F2C434C2F20007C2F200043860B6
:102EF0002046402100F028F840F27C0040F2C51145
:102F0000C2F20000C2F200014022FFF7FBF901F01B
:102F100061FF0DF1070503E02672606800F0F4FF21
:102F2000012002F0A5F800BF207A0028F4D138680B
:102F30002946002202F0BCFD0128F5D19DF80710BA
:102F4000204600F081FFEFE7B0B50025044605728A
:102F5000457285720180084601F0EAFC6060658078
:102F6000B0BD00002DE9F04F8BB0814640F200402B
:102F7000C4F202004FF4006100220024FDF7F6FDC8
:102F800040F208369F20C2F200068DF829004FF06B
:102F9000050A0DF129010AAA304601238DF82840BF
:102FA000CDF800A0FEF75CFA0DF12B070DF12A0514
:102FB000304639462A4601238DF82B408DF82A40A9
:102FC000CDF800A0FEF74CFA9DF82A00394609908A
:102FD00030462A4601238DF82B408DF82A40CDF843
:102FE00000A0FEF73DFA9DF82A00394608903046C9
:102FF0002A4601238DF82B408DF82A40CDF800A0F9
:10300000FEF72EFA9DF82A003946079030462A46E8
:1030100001238DF82B408DF82A40CDF800A0FEF753
:103020001FFA9DF82A003946069030462A460123A9
:103030008DF82B408DF82A40CDF800A0FEF710FA4D
:103040009DF82A003946059030462A4601238DF81E
:103050002B408DF82A40CDF800A0FEF701FA9DF82C
:103060002A003946049030462A4601238DF82B4029
:103070008DF82A40CDF800A0FEF7F2F99DF82A005D
:103080003946039030462A4601238DF82B408DF8AF
:103090002A40CDF800A0FEF7E3F99DF82A00394652
:1030A000029030462A4601238DF82B408DF82A40A5
:1030B000CDF800A0FEF7D4F99DF82A00394601901A
:1030C00030462A4601238DF82B408DF82A40CDF852
:1030D00000A0FEF7C5F99DF82A80304639462A46F9
:1030E00001238DF82B408DF82A40CDF800A0FEF783
:1030F000B7F99DF82AB0304639462A4601238DF8A3
:103100002B408DF82A40CDF800A0FEF7A9F940F237
:1031100000409DF82A40C4F202004FF400610122F1
:10312000FDF724FDDDE9081041EA002000B200EEC1
:10313000100A40F20000C2F2000090ED001AB8EE52
:10314000C00A21EE000A89ED000ADDE9062190EDB2
:10315000001A42EA012109B200EE101AB8EEC00AC4
:1031600021EE000A89ED010ADDE9042142EA01218C
:1031700009B200EE101AB8EEC00A21EE000A89ED7D
:10318000020ADDE9022190ED011A42EA012109B2A9
:1031900000EE101AB8EEC00A21EE000A89ED030A0B
:1031A000019848EA002000B200EE100AB8EEC00A0A
:1031B00044EA0B2021EE000A00B289ED040A00EE79
:1031C000100AB8EEC00A21EE000A89ED050A0BB01C
:1031D000BDE8F08F000000002DE9F04782B040F21A
:1031E0000048C4F2020840464FF400610022002467
:1031F000FDF7BCFC40F2083A9D20C2F2000A8DF8AF
:1032000005004FF005090DF1050101AA5046012303
:103210008DF80440CDF80090FEF722F90DF1070675
:103220000DF10607504631463A4601238DF8074016
:103230008DF80640CDF80090FEF712F99DF8065083
:10324000504631463A4601238DF807408DF8064036
:10325000CDF80090FEF704F99DF8064040464FF483
:1032600000610122FDF782FC44EA052000B203F070
:10327000DBF99FED090B53EC102B03F07BF89FED6E
:10328000080B53EC102B02F0CDFF02F099FF00EE7B
:10329000100A02B0BDE8F0878FC2F5285C8F60404D
:1032A00000000000000039402DE9F04F83B040F2EB
:1032B000004AC4F2020A50464FF400610022002680
:1032C000FDF754FC40F20835F520C2F200058DF8F8
:1032D0000B0005270DF10B010DF10A022846012311
:1032E0008DF80A6000974FF00109FEF7B9F80DF16B
:1032F0000B010DF10A02284601238DF80B608DF8B1
:103300000A600097FEF7ACF89DF80A4050464FF46B
:1033100000610122FDF72AFC50464FF400610022B3
:10332000FDF724FC4FF076080DF10B010DF10A02B8
:10333000284601238DF80B808DF80A600097FEF770
:103340008FF80DF10B010DF10A02284601238DF8CB
:103350000B608DF80A600097FEF782F850464FF434
:1033600000610122FDF702FC50464FF4006100228B
:10337000FDF7FCFB0DF10B010DF10A0228460123BC
:103380008DF80B808DF80A600097FEF769F80DF153
:103390000B010DF10A02284601238DF80B908DF8E0
:1033A0000A600097FEF75CF850464FF40061012276
:1033B000FDF7DCFB642001F05BFE422C40F0D4837F
:1033C00050464FF400610022FDF7D0FB40F2083573
:1033D000C2F200050DF10B010DF10A02284601238E
:1033E0008DF80B808DF80A600097FEF739F80DF123
:1033F0000B010DF10A02284601238DF80B908DF880
:103400000A600097FEF72CF850464FF40061012245
:10341000FDF7ACFB50464FF400610022FDF7A6FB20
:103420007A208DF80B000DF10B010DF10A022846F0
:1034300001238DF80A600097FEF712F84FF0020B97
:103440000DF10B010DF10A02284601238DF80BB096
:103450008DF80A600097FEF703F850464FF40061BC
:103460000122FDF783FB50464FF400610022FDF777
:103470007DFB0DF10B010DF10A02284601238DF8A9
:103480000B808DF80A600097FDF7EAFF0DF10B0144
:103490000DF10A02284601238DF80B608DF80A60B1
:1034A0000097FDF7DDFF50464FF400610122FDF764
:1034B0005DFB50464FF400610022FDF757FB1620DC
:1034C0008DF80B000DF10B010DF10A0228460123C6
:1034D0008DF80A600097FDF7C3FF40208DF80B00C0
:1034E0000DF10B010DF10A02284601238DF80A6047
:1034F0000097FDF7B5FF50464FF400610122FDF73C
:1035000035FB50464FF400610022FDF72FFBE5200C
:103510008DF80B000DF10B010DF10A022846012375
:103520008DF80A600097FDF79BFF0DF10B010DF17F
:103530000A02284601238DF80B608DF80A60009777
:10354000FDF78EFF9DF80A9050464FF4006101226E
:10355000FDF70CFB50464FF400610022FDF706FB1F
:1035600065208DF80B000DF10B010DF10A022846C4
:10357000012365248DF80A600097FDF771FF0DF1B6
:103580000B010DF10A02284601238DF80B608DF81E
:103590000A600097FDF764FF50464FF40061012276
:1035A000FDF7E4FA50464FF400610022FDF7DEFA21
:1035B00060208DF80B000DF10B010DF10A02284679
:1035C00001238DF80A600097FDF74AFF0DF10B010A
:1035D0000DF10A02284601238DF80B608DF80A6070
:1035E0000097FDF73DFF50464FF400610122FDF7C3
:1035F000BDFA50464FF400610022FDF7B7FA612092
:103600008DF80B000DF10B010DF10A022846012384
:103610008DF80A600097FDF723FF0DF10B010DF106
:103620000A02284601238DF80BB08DF80A60009736
:10363000FDF716FF50464FF400610122FDF796FAA0
:1036400050464FF400610022FDF790FA0DF10B0196
:103650000DF10A02284601238DF80B404FF0650B4F
:103660008DF80A600097FDF7FBFE0DF10B010DF1DF
:103670000A02284601238DF80B908DF80A60009706
:10368000FDF7EEFE50464FF400610122FDF76EFAA1
:1036900050464FF400610022FDF768FA5F208DF874
:1036A0000B000DF10B010DF10A02284601238DF8E4
:1036B0000A600097FDF7D4FE63208DF80B000DF132
:1036C0000B010DF10A02284601238DF80A600097CC
:1036D000FDF7C6FE50464FF400610122FDF746FAA1
:1036E00050464FF400610022FDF740FA0DF10B0146
:1036F0000DF10A02284601238DF80B808DF80A602F
:103700000097FDF7ADFE0DF10B010DF10A02284601
:1037100001238DF80B608DF80A600097FDF7A0FE7D
:1037200050464FF400610122FDF720FA50464FF455
:1037300000610022FDF71AFA14208DF80B000DF13C
:103740000B010DF10A02284601238DF80A6000974B
:10375000FDF786FE36208DF80B000DF10B010DF103
:103760000A02284601238DF80A600097FDF778FECB
:1037700050464FF400610122FDF7F8F950464FF42E
:1037800000610022FDF7F2F90DF10B010DF10A02C3
:10379000284601238DF80B808DF80A600097FDF70D
:1037A0005FFE0DF10B010DF10A02284601238DF891
:1037B0000B608DF80A600097FDF752FE50464FF4FB
:1037C00000610122FDF7D2F950464FF4006100225A
:1037D000FDF7CCF9E5208DF80B000DF10B010DF193
:1037E0000A02284601238DF80A600097FDF738FE8B
:1037F0000DF10B010DF10A02284601238DF80B6033
:103800008DF80A600097FDF72BFE9DF80A405046A0
:103810004FF400610122FDF7A9F950464FF4006111
:10382000002244F00404FDF7A1F90DF10B010DF1A4
:103830000A02284601238DF80BB08DF80A60009724
:10384000FDF70EFE0DF10B010DF10A0228460123D2
:103850008DF80B408DF80A600097FDF701FE504689
:103860004FF400610122FDF781F940F20009C2F234
:1038700000094FF06650C9F8000050464FF400614F
:103880000022FDF773F90DF10B010DF10A02284634
:1038900001238DF80B808DF80A600097FDF7E0FD9D
:1038A0000DF10B010DF10A02284601238DF80B6082
:1038B0008DF80A600097FDF7D3FD50464FF4006184
:1038C0000122FDF753F950464FF400610022FDF745
:1038D0004DF9D0208DF80B000DF10B010DF10A020E
:1038E000284601238DF80A600097FDF7B9FD0DF118
:1038F0000B010DF10A02284601238DF80B608DF8AB
:103900000A600097FDF7ACFD9DF80A4050464FF461
:1039100000610122FDF72AF950464FF400610022B0
:1039200044F02904FDF722F950208DF80B000DF129
:103930000B010DF10A02284601238DF80A60009759
:10394000FDF78EFD0DF10B010DF10A022846012352
:103950008DF80B408DF80A600097FDF781FD504609
:103960004FF400610122FDF701F90020C3F6FA408F
:10397000C9F8040050464FF400610022FDF7F6F844
:103980000DF10B010DF10A02284601238DF80B8081
:103990008DF80A600097FDF763FD0DF10B010DF145
:1039A0000A02284601238DF80B608DF80A60009703
:1039B000FDF756FD50464FF400610122FDF7D6F8A1
:1039C00050464FF400610022FDF7D0F8CF208DF86B
:1039D0000B000DF10B010DF10A02284601238DF8B1
:1039E0000A600097FDF73CFD0DF10B010DF10A0295
:1039F000284601238DF80B608DF80A600097FDF7CB
:103A00002FFD9DF80A4050464FF400610122FDF75A
:103A1000ADF850464FF40061002244F02904FDF750
:103A2000A5F84F208DF80B000DF10B010DF10A02E6
:103A3000284601238DF80A600097FDF711FD0DF16E
:103A40000B010DF10A02284601238DF80B408DF879
:103A50000A600097FDF704FD50464FF40061012213
:103A6000FDF784F850464FF400610022FDF77EF820
:103A70000DF10B010DF10A02284601238DF80B8090
:103A80008DF80A600097FDF7EBFC0DF10B010DF1CD
:103A90000A02284601238DF80B608DF80A60009712
:103AA000FDF7DEFC50464FF400610122FDF75EF8A1
:103AB00050464FF400610022FDF758F8CE208DF8F3
:103AC0000B000DF10B010DF10A02284601238DF8C0
:103AD0000A600097FDF7C4FC0DF10B010DF10A021D
:103AE000284601238DF80B608DF80A600097FDF7DA
:103AF000B7FC9DF80A4050464FF400610122FDF7E3
:103B000035F804F0D00000F10F0450464FF4006186
:103B10000022FDF72BF84E208DF80B000DF10B0164
:103B20000DF10A02284601238DF80A600097FDF77F
:103B300097FC0DF10B010DF10A02284601238DF8C7
:103B40000B408DF80A600097FDF78AFC50464FF451
:103B500000610122FDF70AF8012001F089FA70B234
:103B600003B0BDE8F08F00BFFF2670B203B0BDE820
:103B7000F08F0000FFF798FB40F2A834C2F2000477
:103B80002046FFF7EFF90A2001F072FAF8E700008B
:103B900086B040F20009C4F20209FDF701F8FEF711
:103BA000AFFD002743F6300405970097C4F20204E6
:103BB000206809F5806540F08000206020684FF49F
:103BC000006100F0800000900098009720680122BA
:103BD00040F00200206020684FF4006600F0020010
:103BE00000900098009720684FF0010840F0010015
:103BF0002060206800F00100009000982846FCF743
:103C0000B5FF48464FF4807100224FF4807AFCF7EC
:103C1000ADFFCDE90168032001AE0490284631468E
:103C20000397FCF7CFFE48463146CDE901A8CDE920
:103C30000377FCF7C7FE01972068052140F4800058
:103C400020602068002200F48000019001983A2052
:103C5000FDF752F83A20FDF73BF8462005210022F7
:103C6000FDF74AF84620FDF733F840F27805C2F236
:103C70000005A9F57041284640F8041F4FF4E131D2
:103C80000C22C0E90117C0E90377C0E90527C76125
:103C9000FEF78AFA20B1EFF3108072B6FEE700BF9C
:103CA00068684FF48272C168022341F01001C1605C
:103CB00040F20830A9F5E431C2F200004FF400767A
:103CC00080E886000A21C0E90373C0E90586C76160
:103CD000C0E90877C0E90A71FDF732FB20B1EFF3C4
:103CE000108072B6FEE700BF00F03CFF00F022F843
:103CF00042F2D56046F62012C0F60000C0F600027F
:103D0000002100F049F8286000F028F8FEE70000E4
:103D1000EFF3058100291CBF6FF0050070470028F4
:103D200004BF0020704780B580B201F0A1F90020E7
:103D300080BD0000EFF3058000281CBF6FF0050078
:103D4000704740F2C010C2F200000168002911BFA4
:103D50004FF0FF30012101600020704710B5EFF3F4
:103D6000058000281CBF6FF0050010BD40F2C01098
:103D7000C2F20000016801291CBF4FF0FF3010BDE6
:103D80004EF61F51CEF2000100240C70022101609A
:103D900001F040FA204610BD2DE9F04184B08E4676
:103DA00000240394EFF3058150B149B94FF00004AA
:103DB00052B19369002B08BF1823382B16D9002461
:103DC000204604B0BDE8F08180251823002103AF10
:103DD0000093AAB27346019701F094FF039901285A
:103DE00008BF0C46204604B0BDE8F0811179C90730
:103DF00024D15769D2E902864FEA970C1168002F47
:103E0000654608BF8025B8F1000F13D05C2E15D38E
:103E100012690024002A18BF002FD1D0CDE900324A
:103E200062467346CDF8088001F09CFF04B0BDE8FF
:103E3000F08100BF16B91269002AC8D000242046BC
:103E400004B0BDE8F0810000B0B5027AD2B9426892
:103E50004388EF29D15405D0FE2914BF0021012148
:103E600041720FE0417A69B10021417201218172F2
:103E70004268FE2313704268EF2353700288436840
:103E80009A704180817AA1B3428841688B7802336D
:103E900093422ED28A784FF0000E02F0030C0432C7
:103EA00022F003030A1F00BF12F8041F043B8E44D4
:103EB00051789478D5787144214405EB010EF3D103
:103EC000BCF1000F0BD01179BCF1010F8E4406D06C
:103ED0005179BCF1020F8E441CBF91798E440021B0
:103EE0005FFA8EF241728172FF2A418004BF012184
:103EF000017241880131418041880288914224BF8A
:103F000000214180B0BD000070B5C07840F2C411FE
:103F1000C2F200010428087026D0032818BF70BD23
:103F2000FFF75AF910EE100A40F20623010EC2F212
:103F30000003020C19715A71020A9A71FE22D8719B
:103F400003F8082BEF2201EB104103F8072C0522A0
:103F500001EB102103F8062C0322084403F8052C7A
:103F60000B38092274E000BF40F2A835C2F2000508
:103F7000D5F800E040F206234FEA1E6CC2F20003BF
:103F80004FEA1E4083F804C058714FEA1E20987112
:103F900083F807E06A68100E1872100C5872100A45
:103FA0009872DA72A968080E1873080C5873080A18
:103FB0009873D973E868040E1C74040C5C74040ACA
:103FC0009C74D8742C69260E1E75260C5E75260A04
:103FD0009E75DC756D692E0E1E762E0C5E762E0A91
:103FE0009E76FE26DD7603F81C6BEF2603F81B6C2D
:103FF000192603F81A6C042603F8196C0CEB1E46FC
:1040000006EB1E26764406EB126606EB124606EB1E
:104010001226324402EB116202EB114202EB112232
:10402000114401EB106101EB104101EB1021084438
:1040300000EB146000EB144000EB1420204400EB74
:10404000156000EB154000EB152028440A301D22B6
:10405000C64340F27C0040F20621C2F20000C2F2E8
:1040600000011E70BDE87040FEF70ABA2DE9F0416C
:10407000044600F08BFE40F2C006C2F200067069F2
:1040800040F2C04501307061B068C2F2000558B11D
:10409000B069002840F00781B068E16AC06A8842D0
:1040A00098BFB460FFE000BFB4607069012840F0C1
:1040B000FA80284600F00EFE05F1140000F00AFE1A
:1040C00005F1280000F006FE05F13C0000F002FEBC
:1040D00005F1500000F0FEFD05F1640000F0FAFD6E
:1040E00005F1780000F0F6FD05F18C0000F0F2FD1E
:1040F00005F1A00000F0EEFD05F1B40000F0EAFDCE
:1041000005F1C80000F0E6FD05F1DC0000F0E2FD7D
:1041100005F1F00000F0DEFD05F5827000F0DAFD3B
:1041200005F58C7000F0D6FD05F5967000F0D2FD17
:1041300005F5A07000F0CEFD05F5AA7000F0CAFDEF
:1041400005F5B47000F0C6FD05F5BE7000F0C2FDC7
:1041500005F5C87000F0BEFD05F5D27000F0BAFD9F
:1041600005F5DC7000F0B6FD05F5E67000F0B2FD77
:1041700005F5F07000F0AEFD05F5FA7000F0AAFD4F
:1041800005F5027000F0A6FD05F5077000F0A2FD30
:1041900005F50C7000F09EFD05F5117000F09AFD1C
:1041A00005F5167000F096FD05F51B7000F092FD08
:1041B00005F5207000F08EFD05F5257000F08AFDF4
:1041C00005F52A7000F086FD05F52F7000F082FDE0
:1041D00005F5347000F07EFD05F5397000F07AFDCC
:1041E00005F53E7000F076FD05F5437000F072FDB8
:1041F00005F5487000F06EFD05F54D7000F06AFDA4
:1042000005F5527000F066FD05F5577000F062FD8F
:1042100005F55C7000F05EFD05F5617000F05AFD7B
:1042200005F5667000F056FD05F56B7000F052FD67
:1042300005F5707000F04EFD05F5757000F04AFD53
:1042400005F57A7000F046FD05F57F7000F042FD3F
:1042500005F5826000F03EFD05F2244000F03AFDD5
:1042600005F5876000F036FD05F24C4000F032FDA8
:1042700040F29818C2F20008404600F02BFD08F109
:104280001407384600F026FD06F1600000F022FD1C
:1042900006F1380000F01EFD06F14C0000F01AFD9A
:1042A000C6F820807762F068B16A421CE06AF2606A
:1042B0008842626488BFB06200EB800005EB80003A
:1042C000211D00F04BFD00F085FDB06988B1B0689C
:1042D000E16AC06A884228BFBDE8F0814EF604500A
:1042E000CEF200004FF080510160BFF34F8FBFF35B
:1042F0006F8FBDE8F081000040F2C00540F2C0467B
:104300004EF60458C2F20005C2F20006CEF20008D2
:104310004FF0805703E000BF204600F073FD28698E
:10432000D0B100F033FD686CC468201D00F0A4FC1F
:1043300068690138686128690138286100F04AFD20
:1043400094F859000228EAD00128E5D070B9206B12
:1043500000F058FDE0E700BF30680228DFD3C8F85E
:104360000070BFF34F8FBFF36F8FD8E74FF050004F
:1043700080F31188BFF36F8FBFF34F8FFEE700000C
:104380002DE9F0470A9C8246206B16460F46DDE970
:1043900008599100A5229846FCF723F8206B002FBE
:1043A00000EB8600A0F1040020F0070656D0387814
:1043B00084F83400387800284BD0787884F83500B9
:1043C0007878002845D0B87884F83600B878002886
:1043D0003FD0F87884F83700F878D0B3387984F88B
:1043E00038003879A8B3787984F83900787980B3BF
:1043F000B87984F83A00B87958B3F87984F83B0072
:10440000F87930B3387A84F83C00387A08B3787A8F
:1044100084F83D00787AE0B1B87A84F83E00B87A42
:10442000B8B1F87A84F83F00F87A90B1387B84F814
:104430004000387B68B1787B84F84100787B40B1DC
:10444000B87B84F84200B87B00281CBFF87B84F856
:104450004300002084F8430003E000BF002084F8FC
:1044600034000027201D372D28BF3725E562C4E919
:10447000135700F03BFC04F1180000F037FCC5F1C5
:1044800038002083304651464246246164626765A5
:1044900084F8587000F052FBB9F1000F206018BF8B
:1044A000C9F80040BDE8F08708480068006880F35C
:1044B00008884FF0000080F3148862B661B6BFF33D
:1044C0004F8FBFF36F8F00DF00BF000008ED00E0EB
:1044D00081B00020009040F21400C2F20000006899
:1044E0004FF0500181F31188BFF36F8FBFF34F8FEF
:1044F000013007D0FEE700BF009830B9009820B91E
:10450000009810B900980028F6D001B0704700005C
:1045100088B040F2341AC2F2000A0DF11009EB46DD
:10452000DAF80C0005681DB1C068048801E000BF1E
:10453000002400F0E7FE01F061FCBAF80010064626
:10454000884220D3002DAAF8006053D0A64251D350
:1045500001F062FDDAF80C00C068C7683D1D28460E
:1045600000F08AFB97F82800410747D400F0FE00CE
:1045700087F828008CE000BFA880DAF80C003946E4
:104580002D6100F0B7FBDAF80C00016841B3C06898
:10459000C56804882F1D384600F06EFB296A28463E
:1045A000884795F828004007EDD5288B204481B234
:1045B000A142E1D8DAF80400002800F05781002079
:1045C0000490ADF81440069501F008FCDAF80400F8
:1045D00049460022002301F0A5F80028D3D145E187
:1045E000DAF81010AAF80060CAE9031001F014FD0F
:1045F00028E100BF65B1002210E000BF388B3F61A9
:1046000001198AB2B242B98020D90AF10C0023E024
:10461000DAF810000068B0FA80F04209DAF8040015
:10462000A11B89B200F0FAFC01F0F6FC002840F072
:1046300009814EF60450CEF200004FF08051016027
:10464000BFF34F8FBFF36F8FFCE000BF311B89B208
:10465000814207D20AF110000068294600F04AFBA7
:1046600016E000BFDAF80400002800F01D810020E9
:104670000490ADF81440069701F0B0FBDAF804009E
:1046800049460022002301F04DF8002800F00C817B
:10469000396A38468847D5E00098B0F1FF3F07DC1B
:1046A000DDE90120039990470098002800F1CA80B5
:1046B000029E706910B1301D00F0DEFA01F09EFB21
:1046C000BAF80010074688420DD30098AAF8007087
:1046D000092841D9B6E000BFA880DAF80C002146CD
:1046E0002D6100F007FBDAF80C00016851B3C068D7
:1046F000C568B0F800802C1D204600F0BDFA296A7C
:104700002846884795F828004007ECD5288B404478
:1047100081B24145E0D8DAF80400002800F09C801E
:1047200000200490ADF81480069501F057FBDAF8EC
:10473000040049460022002300F0F4FF0028D2D1F3
:104740008AE000BFDAF81010CAE903100098AAF84E
:104750000070092800F27680DFE800F006060648BF
:104760004C680606484C00BF96F82800328B40F093
:104770000101BDF8040086F828101518ABB23146C7
:1047800021F8045FBB42366106D987420AF10C0268
:1047900008D283420AD205E0381A80B2904205D28C
:1047A0000AF11002106800F0A5FA4BE0316A3046B9
:1047B000884796F82800400744D5DAF80400002816
:1047C0005ED0BDF80400318B0696084400210491A8
:1047D000ADF8140001F002FBDAF8040049460022AB
:1047E000002300F09FFF68BB4AE000BF96F8280056
:1047F00024E000BF96F8280040F00101BDF8040055
:1048000086F828100028308344D03844314682B2DC
:1048100021F8040F0AF110003661BA4288BF0AF18C
:104820000C00006800F066FA0CE000BF96F8280063
:10483000810703D4304600F0E5FA03E000F0FE0003
:1048400086F82800DAF804005946002201F030F911
:1048500000287FF421AF63E64FF0500080F3118809
:10486000BFF36F8FBFF34F8FFEE700BF4FF05000D5
:1048700080F31188BFF36F8FBFF34F8FFEE700BF48
:104880004FF0500080F31188BFF36F8FBFF34F8F4D
:10489000FEE700BF4FF0500080F31188BFF36F8F29
:1048A000BFF34F8FFEE700BF4FF0500080F3118839
:1048B000BFF36F8FBFF34F8FFEE70000F0B581B0FD
:1048C000044600F063FA94F94560012E0FDB04F111
:1048D000240500BF286850B1284601F063FB00287A
:1048E00018BF00F011FCF0B2013E0128F2D8FF26FB
:1048F00084F8456000F06EFA00F048FA94F94470CC
:10490000012F0EDB04F11005286850B1284601F094
:1049100049FB002818BF00F0F7FBF8B2013F01285F
:10492000F2D884F8446001B0BDE8F04000F052BA1B
:1049300070B5044600F0E6FC40F2701CC2F2000CB8
:10494000DCF8040050B19CF80000002818BF4FF0BC
:1049500000404FF0000574BB8DE000BF40F6201012
:10496000C2F20000C21D22F0070210F00701A0EB06
:10497000020318BF104600224FF47055CCE906021E
:10498000002918BF03F57055411921F00701A1F165
:104990000803CCF8043041E90222191AC0E90031B9
:1049A00001208CF800004FF00040CCE90211002CEF
:1049B0004FF000055FD020405DD124F0070000F1EA
:1049C0001002600708BF04F10802002A4FF000053A
:1049D00051D0DCF8080082424DD8604650F818EFFC
:1049E000DEF8045095422CD2DEF80010C1B17446B6
:1049F0004D68954218D20B68B3B15D68954217D2E5
:104A00001868A8B14568954216D20468A4B16568D3
:104A1000954215D22168A6460029E9D111E000BFD0
:104A20000CF118000DE000BF8E46204609E000BFE3
:104A30009E46084605E000BF8646184601E000BFD6
:104A4000A646DCF804108E4514D00168DEF800405C
:104A5000AB1A112B04604DD30EEB0205680719D079
:104A60004FF0500080F31188BFF36F8FBFF34F8F6B
:104A7000FEE700BF002501F0CFFA68075BD04FF0DA
:104A8000500080F31188BFF36F8FBFF34F8F00BFCB
:104A9000FEE700BF0CF118006B60CEF8042000BFE9
:104AA0000368AB420AD21868A8420BD20368AB4233
:104AB00004D218681A46A842F2D304E00246184607
:104AC00001E000BF1A4653686C68D618AE4202D1A6
:104AD0001C44154654602B19834207D1DCF804307E
:104AE000984203D0D0E9000323446B60AA422860B7
:104AF00018BF156001F10805DEF80400DCE90212B8
:104B0000091A9142CCF8081038BFCCF80C109CF868
:104B10000010002918BF40F00040CEF80400DCF877
:104B2000100000210130CEF80010CCF8100001F088
:104B300073FA6807A3D1284670BD0000034644F20B
:104B4000D140C0F600004FF0807C21F0010103E964
:104B500003106FF0020043F8240CA3F1440043F863
:104B6000202C7047B0B582B042F6CD6000240225FB
:104B7000C0F600000BA1802200230095019401F0F3
:104B8000C1F843F67530C0F600000BA18022002367
:104B90000095019401F0B6F802B0BDE8B04000F015
:104BA00039BB00BF636F6D756E69636174696F6E49
:104BB0005F7461736B000000696D755F7461736B86
:104BC000000000002DE9F04182B040F27C00C2F20A
:104BD000000000680168C9064BD5002101910168F9
:104BE000019140680190019840F27C00C2F20000FF
:104BF000FCF718FF40F24820C2F20000006840F2C3
:104C000005254068C2F20005C0F1400040F2C038FE
:104C10002870C2F20008D8F80000F8B1287890B1E6
:104C200040F2C5160027C2F200066C46D8F8000014
:104C3000F1192246002300F08FFE287801378742C1
:104C4000F4D3009850B14EF60450CEF200004FF06D
:104C500080510160BFF34F8FBFF36F8F40F27C0034
:104C600040F2C511C2F20000C2F200014022FDF77D
:104C700049FB02B0BDE8F081D0E9013201699A60D8
:104C8000D1F804C082688445536008BF4A6000229E
:104C900002610868013808600868704744F22473AC
:104CA000C2F20003036044F22450C2F20000086024
:104CB000802010607047000044F68033C2F2000389
:104CC000036044F28070C2F2000008604FF480700C
:104CD000106070474FF6FF71024622F8081F00214E
:104CE0004260C0E9032201607047000000210161B9
:104CF0007047000010B5B1F800C04FF6FF72944540
:104D000004D10269D2F804E01CE000BF00F10804FD
:104D10006268138863450DD853681C8864450DD8B4
:104D20005A68148864450BD854682388A64663459E
:104D3000EED907E09646224604E000BF9E4601E019
:104D400096461A46C1F804E0CEF808108A60516011
:104D5000086101680131016010BD0000D0F800C099
:104D6000436808619A684B608A609A6899605160EC
:104D70000CF1010101607047DFF80C00016841F49B
:104D8000700101607047000088ED00E04FF05000B6
:104D900080F31188BFF36F8FBFF34F8F40F2140081
:104DA000C2F2000001684A1C026009B1704700BFEE
:104DB0004EF60450CEF200000068000608BF7047AF
:104DC0004FF0500080F31188BFF36F8FBFF34F8F08
:104DD000FEE7000040F21400C2F20000016839B1A1
:104DE0000139016018BF7047002080F311887047B7
:104DF0004FF0500080F31188BFF36F8FBFF34F8FD8
:104E0000FEE7000070B5002808BF70BD40F27015C5
:104E1000C2F200050446287854F8041C002818BF84
:104E20004FF0004008420DD0A4F1080632689AB154
:104E30004FF0500080F31188BFF36F8FBFF34F8F97
:104E4000FEE700BF4FF0500080F31188BFF36F8F73
:104E5000BFF34F8FFEE700BF21EA000044F8040CC7
:104E600000F050FA54F8041CA8680844A86005F142
:104E7000180000BF0368B3420AD21868B04225D2B6
:104E80000368B34204D218681A46B042F2D301E074
:104E9000024618465368D418B44202D11944164643
:104EA00051607318834206D16B68984203D0D0E9F1
:104EB000000319447160B242306018BF166068691F
:104EC00001306861BDE8704001F0A6B81A46536829
:104ED000D418B442E5D1E1E74EF21000CEF2000062
:104EE00000210160816040F21001C2F200010968F6
:104EF00044F6D352C1F26202A1FB02124FF0FF311D
:104F000001EB9211416007210160704740F290105F
:104F1000EFF305811029C2F2000011D34EF2F032F6
:104F2000CEF20002895C0278914209D24FF0500023
:104F300080F31188BFF36F8FBFF34F8FFEE700BF81
:104F40004EF60C51CEF200010968406801F4E061B0
:104F5000814298BF70474FF0500080F31188BFF333
:104F60006F8FBFF34F8F00BFFEE7000044F6DC3CBD
:104F7000C2F2000CDCF8002022B3634653F8082F7D
:104F800042B3634653F8102F52B3634653F8182FB9
:104F900062B3634653F8202F72B3634653F8282F49
:104FA00082B3634653F8302F92B3634653F8382FD9
:104FB000002A18BF7047072219600CEBC201486035
:104FC000704700BF0022634619600CEBC2014860C5
:104FD000704700BF012219600CEBC20148607047A6
:104FE000022219600CEBC20148607047032219606D
:104FF0000CEBC20148607047042219600CEBC2013F
:1050000048607047052219600CEBC2014860704788
:10501000062219600CEBC2014860704770B5154656
:105020000E460446FFF7B2FE94F84400FF2804BF82
:10503000002084F8440094F84500FF2804BF0020B5
:1050400084F84500FFF7C6FEA06B28B12046BDE8F6
:105050007040FFF733BC00BF04F1240031462A46FC
:1050600000F098F82046BDE87040FFF727BC00002C
:1050700070B598B340F2C005C2F200050446E86975
:1050800050B14FF0500080F31188BFF36F8FBFF322
:105090004F8F00BFFEE700BFE8690130E8612E884E
:1050A000A8680430FFF7E8FD3444A6B2A868A64219
:1050B000848005D0686AA9680431FFF71BFE08E008
:1050C000286AA9680431FFF715FE6888864238BF50
:1050D0006C8000F0A1FF002818BF70BD4EF6045090
:1050E000CEF200004FF080510160BFF34F8FBFF34D
:1050F0006F8F70BD40F2C001C2F200014A6B0260C6
:10510000098881807047000040F2C000C2F20000B0
:10511000012101637047000070B5F8B140F2C0058D
:10512000C2F200050C46A9681831FFF7E3FD2E888E
:10513000A8680430FFF7A0FD4FF6FF70844217D037
:105140003444A6B2A868A642848019D0686AA968C7
:105150000431BDE87040FFF7CDBD00BF4FF05000F7
:1051600080F31188BFF36F8FBFF34F8FFEE700BF4F
:10517000A868011D05F14C00BDE87040FFF7EEBDC9
:10518000286AA9680431FFF7B5FD6888864238BFF0
:105190006C8070BDF0B581B0C0B140F2C006C2F203
:1051A00000060C46B16815461831FFF7D7FD378861
:1051B000B0680430FFF760FD95B1B068011D06F1DD
:1051C0004C0001B0BDE8F040FFF7C8BD4FF0500003
:1051D00080F31188BFF36F8FBFF34F8FFEE700BFDF
:1051E0003C44A5B2B068A542848007D0706AB1681B
:1051F000043101B0BDE8F040FFF77CBD306AB16812
:105200000431FFF777FD7088854238BF748001B0A4
:10521000F0BD000010B588B00020CDE9050006A85B
:1052200005A904AAFFF73AFD059800283ED0069C80
:10523000002C45D05C21049A079107995C2949D13B
:1052400007992063022084F8590007A80021CDE9BE
:10525000001044F2F920C0F6000028A100230294B7
:10526000FFF78EF82046FEF701FF079840F2C004D2
:10527000C2F20004E062B0B100F048FF411C33D03C
:10528000012810D14FF0500080F31188BFF36F8FC9
:10529000BFF34F8F4FF6FF7060800120A0610020A8
:1052A000208000F095F808B010BD00BF4FF050000E
:1052B00080F31188BFF36F8FBFF34F8FFEE700BFFE
:1052C0004FF0500080F31188BFF36F8FBFF34F8F03
:1052D000FEE700BF4FF0500080F31188BFF36F8FDF
:1052E000BFF34F8FFEE700BF4FF0500080F31188EF
:1052F000BFF36F8FBFF34F8FFEE700BF49444C45AC
:105300000000000040F2C000C2F20000C16901319B
:10531000C161704780B540F2C00EC2F2000EDEF8E7
:105320001C1019B10121CEF8301080BD0021CEF83B
:105330003010DEF8281040F2C04C01EB8103C2F2BD
:10534000000C5CF823208AB101EB81020CEB820394
:1053500053F8042F5268181D82421A6020D0D0687A
:10536000CEF80800CEF8281080BD00BF0CEB8302F9
:10537000A2F12803E1B15A6922BB012918D01A68A9
:1053800012BB022914D053F8142CFAB903290FD0F8
:1053900053F8282C0439002AA3F15003EAD0D3E7AC
:1053A00052681A60D068CEF80800CEF8281080BD88
:1053B0004FF0500080F31188BFF36F8FBFF34F8F12
:1053C000FEE700BF0139BFE70239BDE70339BBE79C
:1053D000B0B584B04EF20040CEF200004CF2702125
:1053E000C4F20F11D0F800294B1C9A420AD14FF099
:1053F000500080F31188BFF36F8FBFF34F8F00BF52
:10540000FEE700BFD0F800298A4209D14FF05000D2
:1054100080F31188BFF36F8FBFF34F8FFEE700BF9C
:105420000021019101788DF80B10FF2101700178A6
:105430008DF803109DF8031011F0500240F2901106
:10544000C2F200010A7000F08D809DF8032002F086
:105450005002502A40F090809DF90320B2F1FF3FA6
:1054600066DD019A0024082A4FF0000206D0019A56
:105470004FF4E063A3EB022202F4E0624A609DF87D
:105480000B100170D0F8201941F47F01C0F82019E9
:10549000D0F8201941F07F41C0F82019FFF71CFD1A
:1054A00040F21405C2F200052C60FFF765FC4EF6D1
:1054B0003470CEF20000016841F040410160FEF717
:1054C000F3FFFFF727FF039428684FF0500181F3A3
:1054D0001188BFF36F8FBFF34F8F01303CD000BFF7
:1054E000FEE700BF019A013201929DF803205200AD
:1054F0008DF803209DF90320B2F1FF3FB1DC019A42
:10550000013201929DF8032052008DF803209DF98D
:105510000320B2F1FF3FA4DC019A013201929DF811
:10552000032052008DF803209DF90320002A98D50E
:10553000019A013201929DF8032052008DF8032058
:105540009DF90320B2F1FF3FCCDD8AE7039830B923
:10555000039820B9039810B903980028F6D00020CA
:1055600004B0B0BD4FF0500080F31188BFF36F8FCF
:10557000BFF34F8FFEE700BF4FF0500080F311885C
:10558000BFF36F8FBFF34F8FFEE7000080B54FF082
:10559000500080F31188BFF36F8FBFF34F8F00F07F
:1055A00039FC30B14EF60450CEF200004FF080517D
:1055B0000160002080F3118880BD00002DE9F041DA
:1055C000B0B306464843503014460F46FFF7B0F9D3
:1055D000054650B34FF00008284685F84680002F56
:1055E00018BF50302860C5E90F67FFF7CFFB286868
:1055F000D5E90F12C5F8388002FB0103013901FB20
:105600000201C5E90103FF20E96085F8440085F83F
:10561000450005F11000FFF75DFB05F12400FFF7E1
:1056200059FBFFF7D7FB85F84C402846BDE8F081D1
:105630004FF0500080F31188BFF36F8FBFF34F8F8F
:10564000FEE7000070B582B070B11C46B3B1F9B985
:10565000F2B14FF0500080F31188BFF36F8FBFF3AA
:105660004F8F00BFFEE700BF4FF0500080F311885E
:10567000BFF36F8FBFF34F8FFEE700BF4FF05000B7
:1056800080F31188BFF36F8FBFF34F8FFEE700BF2A
:1056900051B14AB94FF0500080F31188BFF36F8FBA
:1056A000BFF34F8FFEE700BF50230193019B502BA8
:1056B0002ED1019B069E012384F84630002908BFA5
:1056C00022462260C4E90F01FFF760FB2068D4E99D
:1056D0000F12002502FB0103013901FB0201A56342
:1056E000C4E90103FF20E16084F8440084F8450028
:1056F00004F11000FFF7EEFA04F12400FFF7EAFAD4
:10570000FFF768FB204684F84C6002B070BD00BF14
:105710004FF0500080F31188BFF36F8FBFF34F8FAE
:10572000FEE700002DE9F04F83B0ADF80A20C8B1C4
:105730001D4617460E460446F1B1022D03D1E06B1B
:10574000012840F08B8000F049FB18BB17B34FF0E5
:10575000500080F31188BFF36F8FBFF34F8F00BFEE
:10576000FEE700BF4FF0500080F31188BFF36F8F4A
:10577000BFF34F8FFEE700BF206C0028DDD04FF055
:10578000500080F31188BFF36F8FBFF34F8F00BFBE
:10579000FEE700BFFFF7FAFAA06B022D68D0E16BBD
:1057A000884265D304F1100801206F460DF10A0903
:1057B0000DE000BF2046FFF781F800F02DFCFFF759
:1057C000E5FAA06BE16B88424FF0000050D3BDF8C2
:1057D0000A10002974D0C00702D03846FFF78AFCAF
:1057E000FFF7F8FAFFF78EFDFFF7D0FA94F84400C0
:1057F000FF2804BF002084F8440094F84500FF28E7
:1058000004BF002084F84500FFF7E4FA3846494613
:1058100000F024FA002859D1FFF7B8FAD4F838A0DC
:10582000D4F83CB0FFF7D6FADA45C3D1BDF80A1078
:105830004046FFF771FC2046FFF740F800F0ECFB14
:105840000028BCD14EF60450CEF200004FF080513B
:105850000160BFF34F8FBFF36F8FB0E74FF0500081
:1058600080F31188BFF36F8FBFF34F8FFEE700BF48
:10587000A76B226CD2B19DB3E0683146FAF76CFD9C
:10588000E168206C2268091A9142E16003D2A168A4
:1058900040420844E060A81EB0FA80F04009394652
:1058A000002F18BF012108403F1A26E0206800257C
:1058B00020BBA06800F030FBA56005461EE000BFDD
:1058C000FFF788FA002003B0BDE8F08F2046FEF70E
:1058D000F5FF00F0A1FB002003B0BDE8F08F00BF92
:1058E00060683146FAF738FD216CD4E901020844BA
:1058F0009042606001D3206860600025781CA0633E
:1059000054F8240FA0B1204600F04CFB50B14EF6E5
:105910000450CEF200004FF080510160BFF34F8F72
:10592000BFF36F8FFFF756FA012003B0BDE8F08F89
:10593000002DF7D04EF60450CEF200004FF080510B
:105940000160BFF34F8FBFF36F8FFFF743FA012062
:1059500003B0BDE8F08F00002DE9F04700B31E460C
:10596000144605460F4629B3022E02D1E86B0128E2
:1059700052D1FFF7CBFAEFF311884FF0500080F3CC
:105980001188BFF36F8FBFF34F8FA86B022E1FD00C
:10599000E96B88421CD3002088F31188BDE8F087AA
:1059A0004FF0500080F31188BFF36F8FBFF34F8F1C
:1059B000FEE700BF286C0028D6D04FF0500080F3DF
:1059C0001188BFF36F8FBFF34F8F00BFFEE700BF9B
:1059D00095F84590A86BD5F838A02A6C32B36EB311
:1059E000E8683946FAF7B8FCE968286C2A68091AA9
:1059F0009142E96003D2A96840420844E860B01EC1
:105A0000B0FA80F040095146BAF1000F18BF0121E9
:105A10000840AAEB000A1EE04FF0500080F3118806
:105A2000BFF36F8FBFF34F8FFEE700BF286890B9B9
:105A3000A86800F071FA0020A8600CE06868394698
:105A4000FAF78AFC296CD5E90102084490426860A3
:105A500001D3286868600AF10100B9F1FF0FA8635B
:105A600010D155F8240FB8B1284600F09BFA014632
:105A7000002C4FF0010018BF002913D188F31188C2
:105A8000BDE8F08709F1010085F84500012088F3A1
:105A90001188BDE8F08700BF012088F31188BDE8B8
:105AA000F08700BF0120206088F31188BDE8F087EF
:105AB0002DE9F04F83B0ADF80A2098B116460D4697
:105AC0000446002948D000F089F9A8B9A6B14FF0E2
:105AD000500080F31188BFF36F8FBFF34F8F00BF6B
