:020000040800F2
:1000000028520020E90200080B1F0008E91D000823
:10001000091F00081F060008E12500080000000075
:10002000000000000000000000000000290200089D
:10003000DD060008000000008502000829200008F5
:100040000303000803030008030300080303000878
:100050000303000803030008030300080303000868
:100060000303000803030008030300080303000858
:100070000303000803030008030300080303000848
:100080000303000803030008030300080303000838
:100090000303000803030008030300080303000828
:1000A00003030008ED200008030300080303000811
:1000B0000303000803030008030300080303000808
:1000C00003030008030300080303000803030008F8
:1000D00003030008CD2500080303000803030008FC
:1000E00003030008030300080303000803030008D8
:1000F00003030008030300080303000803030008C8
:1001000003030008030300080303000803030008B7
:1001100003030008030300080303000803030008A7
:100120000303000803030008210600080303000876
:1001300003030008000000000000000003030008A3
:100140000303000803030008030300080303000877
:1001500003030008030300082D060008030300083A
:100160000303000803030008030300080303000857
:100170000303000803030008000000000000000063
:10018000030300080303000800F002F800F03CF845
:100190000AA090E8000C82448344AAF10107DA45E2
:1001A00001D100F031F8AFF2090EBAE80F0013F0F8
:1001B000010F18BFFB1A43F001031847804B0000E2
:1001C000A04B0000103A24BF78C878C1FAD8520773
:1001D00024BF30C830C144BF04680C6070470000C1
:1001E0000023002400250026103A28BF78C1FBD840
:1001F000520728BF30C148BF0B6070471FB504F0DD
:100200006BFD1FBD10B510BD00F0D0F91146FFF712
:10021000F5FF02F039FC00F0EEF903B4FFF7F2FF4E
:1002200003BC00F0F5F900002C4B19680868B0E831
:10023000F04F80F30988BFF36F8F4FF0000080F319
:10024000118870470000000008480068006880F3CB
:1002500008884FF0000080F3148862B661B6BFF3DF
:100260004F8FBFF36F8F00DF00BF00BF08ED00E0CE
:10027000DFF80C00016841F470010160704700BFB5
:1002800088ED00E0EFF30980BFF36F8F134B1A681E
:100290001EF0100F08BF20ED108A20E9F04F10600B
:1002A00009B44FF0500080F31188BFF34F8FBFF3B4
:1002B0006F8F03F03BFC4FF0000080F3118809BC06
:1002C00019680868B0E8F04F1EF0100F08BFB0ECD6
:1002D000108A80F30988BFF36F8F704728000020D1
:1002E000EFF3058070470000094880470948004740
:1002F000FEE7FEE7FEE7FEE7FEE7FEE7FEE7FEE7D6
:10030000FEE7FEE704480549054A064B7047000032
:10031000DD20000889010008284C00202852002018
:10032000284E0020284E002053EA020C00F069807D
:100330002DE9F04B4FF00006002B1FBFB3FA83F5F9
:1003400003FA05F424FA05F65E4012BF1643B2FA2A
:1003500082F502FA05F4C5F120051EBF22FA05FC5C
:1003600044EA0C04203556EA044C4FEA144418BF02
:10037000641C4FF000084FF00009904271EB030C31
:1003800039D3002919BFB1FA81F701FA07F6B0FA9B
:1003900080F700FA07F6C7F120071EBF20FA07FC16
:1003A00046EA0C062037B6FBF4FCA7EB0507103F26
:1003B00007F01F0BCBF120060CFA0BFB2CFA06F60C
:1003C00044BFB3460026202FA4BF5E464FF0000B6B
:1003D0005BEA060C08BF4FF0010B19EB0B09ABFBF6
:1003E000027C48EB0608C01B06FB02CC0BFB03CCCF
:1003F00071EB0C01C1E70B46024641464846BDE899
:10040000F08B13B54FF000004FF00001AFF3008008
:10041000BDE81C407047032A40F2308010F0030C06
:1004200000F0158011F8013BBCF1020F624498BF47
:1004300011F801CB00F8013B38BF11F8013BA2F1E4
:10044000040298BF00F801CB38BF00F8013B11F05F
:10045000030300F05780083AC0F0088051F8043BCD
:10046000083A51F804CBA0E80810F5E7121D5CBF6C
:1004700051F8043B40F8043BAFF30080D20724BF9F
:1004800011F8013B11F801CB48BF11F8012B24BF33
:1004900000F8013B00F801CB48BF00F8012B704782
:1004A00002F0FF0343EA032242EA024200F05EB890
:1004B0004FF0000200B5134694469646203922BFFD
:1004C000A0E80C50A0E80C50B1F12001BFF4F7AF48
:1004D000090728BFA0E80C5048BF0CC05DF804EB2A
:1004E000890028BF40F8042B08BF704748BF20F898
:1004F000022B11F0804F18BF00F8012B7047704796
:100500007047704710B5203AC0F00B80B1E8185022
:10051000203AA0E81850B1E81850A0E81850BFF4ED
:10052000F5AF5FEA027C24BFB1E81850A0E818508C
:1005300044BF18C918C0BDE810405FEA827C24BFE0
:1005400051F8043B40F8043B08BF7047D20728BF6E
:1005500031F8023B48BF11F8012B28BF20F8023BBD
:1005600048BF00F8012B70474FF000020429C0F08B
:10057000128010F0030C3FF49DAFCCF1040CBCF1E1
:10058000020F18BF00F8012BA8BF20F8022BA1EB27
:100590000C01FFF78FBF5FEAC17C24BF00F8012B7D
:1005A00000F8012B48BF00F8012B7047754600F09A
:1005B0002BF8AE4605006946534620F007008546F5
:1005C00018B020B5FFF79EFEBDE820404FF00006B2
:1005D0004FF000074FF000084FF0000B21F007012B
:1005E000AC46ACE8C009ACE8C009ACE8C009ACE86E
:1005F000C0098D46704710B50446AFF30080204611
:10060000BDE81040FFF709BE00487047C44B00200A
:1006100001491820ABBEFEE7260002007047FEE746
:10062000014800F0B9B80000E8010020014800F0DE
:10063000B3B800004802002001681823CAB2103A7B
:10064000B2FBF3F2054B6FF30901032A9B5CC36510
:1006500000D9091D8165084670470000104D00084B
:1006600010B5014600208B698A6A4FF0C07453B1FF
:10067000B3F5005F15D072B1012A0CD0022A0AD05E
:10068000032A09D104E01AB1012A06D0022A03D1B3
:10069000C96AC90100D5012010BDC96AA142FAD0BA
:1006A00010BD002AF7D0012AF2D0022AF3D0032A83
:1006B000F3D010BD30B50468256825F48025256089
:1006C000046863608368402B036803D09960006806
:1006D000C26030BD9A600068C16030BD704772B6BC
:1006E000FEE72DE9F0410446876D00F0C5FA0646A5
:1006F00094F835000025022806D08020606584F833
:1007000034500120BDE8F0812068016821F0160115
:1007100001602068416921F080014161206C08B9C5
:10072000A06C20B12068016821F0080101602068F8
:10073000016821F0010101600CE000F09DFA801BCE
:10074000052807D920206065032084F8350084F847
:100750003450D7E720680068C007EED194F85C10E9
:100760003F208840B860012084F8350084F8345078
:100770000020C7E790F83510022903D08021416599
:1007800001207047052180F835100068016821F0CC
:1007900001010160002070472DE9F84304464FF045
:1007A0000009CDF8009063484FF41651A56D00681C
:1007B000B0FBF1F72E6894F85C10082000FA01F104
:1007C00031420FD021680A6852070BD50A6822F01F
:1007D00004020A6094F85C108840A860606D40F0E4
:1007E0000100606594F85C104FF0010808FA01F010
:1007F000304208D021684969090604D5A860606DB7
:1008000040F00200606594F85C100420884030429B
:1008100008D021680968890704D5A860606D40F098
:100820000400606594F85C1010208840304218D0B5
:1008300021680968090714D5A86020680168490380
:1008400004D50068000308D5A16C07E00168C9055C
:1008500003D4016821F008010160216C09B1204630
:10086000884794F85C1020208840304231D02168BD
:100870000968C9062DD5A86094F8350005282068B8
:10088000016806D0490347D5006800031DD4616C98
:100890001CE021F0160101602068416921F080010F
:1008A0004161206C08B9A06C20B12068016821F07A
:1008B0000801016094F85C103F208840A86084F82B
:1008C000358084F83490216D1FE0E16B09B120463A
:1008D0008847606D00282BD0606DC00714D00520BC
:1008E00084F835002068016821F00101016000985A
:1008F000401C0090B84203D820680068C007F6D1B9
:1009000084F8358084F83490E16C002910D001B06F
:100910002046BDE8F04308470168C905D5D4016801
:1009200021F01001016084F8358084F83490CCE720
:10093000BDE8F883240000202DE9F041044600F0D2
:100940009BF906465CB1022084F83500002584F846
:1009500034502068016821F0010101600DE00120A0
:10096000BDE8F08100F088F9801B052805D920201A
:100970006065032084F83500F2E720680068C0074E
:10098000F0D12268116820480140D4E901031843DE
:10099000D4E903363343184363691843A369184302
:1009A000E3691843236A18430843616A042903D1A1
:1009B000D4E90B1319430843106020684069666A44
:1009C00020F0070130460E43012704280CD1A06A0D
:1009D0000643E06A40B12046FFF742FE20B14020C6
:1009E000606584F83570BAE7206846612046FFF7F5
:1009F00023FE94F85C203F2191408160656584F876
:100A000035700020ACE700003F8010F02DE9F04188
:100A10000446866D90F83400002501280DD0012091
:100A200084F8340094F835700020012F07D084F842
:100A3000340002252846BDE8F0810220FBE70227AA
:100A400084F8357060652046FFF734FE94F85C103A
:100A50003F208840B0602068016841F016010160C5
:100A6000206C20B12068016841F008010160206815
:100A7000016841F001010160DCE700002DE9F84F59
:100A8000DFF8BCA10022012503264FF00F090AF16F
:100A9000040BAAF1040E00BF0B6805FA02F4234010
:100AA000A34270D10F7907F00307012F01D0022F65
:100AB00016D187684FEA420806FA08FC27EA0C07B5
:100AC000D1F80CC00CFA08FC4CEA070CC0F808C0BE
:100AD0004768A7430C79C4F3001494403C43446036
:100AE0000C79E443A4070AD0C4684FEA420C06FA22
:100AF0000CF7BC438F6807FA0CF72743C7600C79E3
:100B000004F00304022C12D1D40800EB840CDCF8AE
:100B100020405707FF0E09FA07F824EA0804D1F825
:100B2000108008FA07F848EA0408CCF82080046826
:100B30004FEA420C06FA0CF7BC430F7907F00307A3
:100B400007FA0CF7274307604C6814F4403F70D055
:100B50003C4C276847F480472760246822F003074D
:100B600004F480440094384C07EB040CDCF808488B
:100B700097074FEA177809FA08F7BC43334FB84292
:100B800002D1002724E054E0314FB84201D10127BF
:100B90001EE0304FB84201D1022719E02E4FB84273
:100BA00001D1032714E02D4FB84201D104270FE0F3
:100BB0002B4FB84201D105270AE02A4FB84201D194
:100BC000062705E0284FB84201D1072700E0082793
:100BD00007FA08F72743CCF80878DAF800405746B8
:100BE000D1F804C09C435FEACC2C00D51C433C6088
:100BF000DBF800405F46D1F804C09C435FEA8C2CD0
:100C000000D51C433C60DEF800407746D1F804C0B4
:100C10009C435FEA8C3C00D51C433C60084F083F76
:100C20003C68D1F804C09C435FEACC3C00D51C432F
:100C30003C60521C102AFFF42FAFBDE8F88F000073
:100C4000083C0140443802400030014000000240AE
:100C50000004024000080240000C02400010024064
:100C60000014024000180240001C02400AB18161D9
:100C700070470904FBE700000148806870470000E6
:100C80001800002002488168027811448160704792
:100C9000180000200B4810B5016841F40071016094
:100CA000016841F480610160016841F48071016074
:100CB000032000F099F80F2000F006F800F04AF841
:100CC000002010BD003C024030B505461C4887B0EE
:100CD0000024016841F001010160006806A900F0EC
:100CE0000100009001A800F02BF900F059F9154916
:100CF0004000B0FBF1F11548134A491E026040F272
:100D0000E732C0E90324C0E90114846100F0C5FCA6
:100D1000040012D10D4800F0EFFC04000DD11920A1
:100D200000F034F8102D07D200222946192000F0D7
:100D30003BF80748056000E0012407B0204630BDBD
:100D40004438024040420F0000000140A802002049
:100D50001C0000200C4882B0016841F48041016011
:100D6000006800F4804000900748001F016841F0CF
:100D7000805101600068002200F0805000900F2137
:100D8000901E02B000F010B844380240002809DB81
:100D900000F01F02012191404009800000F1E02095
:100DA000C0F8001170470000F0B40E4B1B680C46F1
:100DB000C3F30223C3F10705042D00D90425191D2F
:100DC000072901D2002300E0DB1E012606FA05F107
:100DD000491E214099409E40761E16403143F0BC8A
:100DE00001F0FFBB0CED00E0064900F007020868C7
:100DF0004FF6FF03184040EA0220034A1043086000
:100E0000704700000CED00E00000FA052DE9F04706
:100E10000E46050065D0DFF81481D8F80000F7B25F
:100E200000F00700B04207D288F80070D8F8000040
:100E300000F00700B04254D128683D4C810712D51C
:100E4000400703D5206840F4E05020602878000770
:100E500003D5206840F4604020602068A96820F035
:100E6000F000084320602878C0072DD0304968681A
:100E70000839012812D0022813D0032811D009689C
:100E8000890700292DDA216821F00301014321603F
:100E9000FFF7F2FE814641F2883A0EE009688903C5
:100EA000EFE709688901ECE7FFF7E6FEA0EB09012F
:100EB000514502D90320BDE8F0872068696800F039
:100EC0000C00B0EB810FEFD1D8F80010404601F0D4
:100ED0000701B14207D90770006800F00700B0426F
:100EE00001D00120E7E72878400705D52068E968A8
:100EF00020F4E050084320602878000706D52068D9
:100F0000296920F4604040EAC100206000F058F8F0
:100F10002168084AC1F30311515CC84006490860C2
:100F200006480068FFF7D0FE0020C4E7003C0240FE
:100F300008380240184D0008240000201C00002042
:100F40000F2202600C4A136803F003034360136826
:100F500003F0F0038360136803F4E053C360126886
:100F60004FF4E05303EAD20202610448006800F043
:100F7000070008607047000008380240003C02404B
:100F80000448054900680968044AC1F38221515C9C
:100F9000C84070472400002008380240284D00084F
:100FA0000448054900680968044AC1F34231515CAC
:100FB000C84070472400002008380240284D00082F
:100FC000154810B5006810F00C02144813D04110F9
:100FD000042A0FD0082A0ED10F4C241F2268236840
:100FE00002F03F025B0207D52068C0F38810A0FB27
:100FF000010106E0084610BD2168C1F38811A1FB7C
:1010000000010023FFF790F92168C1F30141491C59
:101010004900B0FBF1F010BD083802400024F40094
:101020002DE9F84F04006ED02078DFF84C93C0070C
:10103000A9F104054AD009F104000168C1F3810156
:10104000012908D00068C0F3810002280AD1D9F82C
:101050000000400206D52868800337D56068002864
:10106000E1D033E06068B0F5803F10D0B0F5A02F3C
:10107000286810D020F480302860286820F4802070
:1010800028606068A8B1FFF7F7FD06460DE0286804
:1010900040F48030F4E740F480202860F7E700BF98
:1010A000FFF7EAFD801B642873D828688003F7D512
:1010B0000CE0FFF7E1FD064605E000BFFFF7DCFDB1
:1010C000801B6428F0D828688003F7D42078DFF8E4
:1010D000AC8280074FF0000A3ED5A748001D01688A
:1010E00011F00C0F08D00068C0F3810002280BD16A
:1010F000D9F80000400207D42868800716D5E068B8
:10110000012800D112E033E1E068B8B10120C8F84D
:101110000000FFF7B1FD064605E000BFFFF7ACFD9C
:10112000801B0228C0D828688007F7D52868216965
:1011300020F0F80040EAC10028600DE0C8F800A0E7
:10114000FFF79AFD064604E0FFF796FD801B022894
:101150001FD828688007F7D42078000722D5864F4B
:1011600087486169703771B101210160FFF784FD23
:10117000064604E0FFF780FD801B022809D8386886
:101180008007F7D50EE0C0F800A0FFF775FD064612
:1011900005E082E0FFF770FD801B02287DD83868EB
:1011A0008007F7D42078400768D5DFF8CCB1002756
:1011B0000BF13C0BDBF80000C0000BD4DBF8001097
:1011C00041F08051CBF80010DBF80000012700F05F
:1011D000805000906B4E3068C00510D4306840F4E9
:1011E00080703060FFF748FD009005E0FFF744FD98
:1011F0000099401A022850D83068C005F6D55E4ED6
:10120000A0686C3601280FD00528306810D020F077
:1012100001003060306820F004003060A068B8B190
:10122000FFF72AFD00900FE0306840F00100F4E77E
:1012300040F004003060F7E7FFF71EFD0099411A07
:1012400041F28830814266D830688007F4D50EE0DC
:10125000FFF712FD009007E0FFF70EFD0099411A1D
:1012600041F28830814256D830688007F4D42FB1DB
:10127000DBF8001021F08051CBF80010A069C8B352
:101280003D49091D0968C1F3810102294AD002289C
:10129000504607D0C8F8600000E03CE0FFF7ECFCE7
:1012A00004463BE04746C8F86000FFF7E5FC064609
:1012B00005E000BFFFF7E0FC801B02282BD8286860
:1012C0008001F7D4D4E907010843A16A2E4A4908EE
:1012D00002EB0141626A41EA8211084394F82C1042
:1012E00040EA0161C9F8001001203866FFF7C4FC2C
:1012F000044606E03EE000BFFFF7BEFC001B0228EC
:1013000009D828688001F7D534E000BFFFF7B4FCA6
:10131000001B022802D90320BDE8F88F286880014D
:10132000F4D427E00128F7D0D9F80000E26900F4EE
:10133000800191421CD1226A00F03F01914217D1F5
:1013400047F6C071626A0140B1EB821F10D1A26AF8
:101350004FF0FF3300F4403103EB5202B1EB024F88
:1013600006D194F82C1000F07060B0EB016F01D042
:101370000120D1E70020CFE70438024000004742B7
:10138000800E4742007000400000FFFF70B504006F
:1013900009D0606A002540B125616561A56294F8B5
:1013A000510040B10CE0012070BD6068B0F5827F53
:1013B000F4D0E561F2E784F85050204600F044F89C
:1013C000022084F851002068016821F0400101608A
:1013D000A088218900F4827001F404410843A189A6
:1013E00001F400610843217C01F002010843217DE2
:1013F00001F001010843218B01F400710843217FB2
:1014000001F03801084394F8201001F080010843EE
:10141000218D01F40051084321680860A06904216E
:1014200001EA104094F8241001F0100108432168EB
:1014300048602068C16921F40061C16165650120CF
:1014400084F85100002070BD10B586B00446142108
:101450006846FFF72DF814492068884221D11348C7
:101460000021026842F480420260006800F480407B
:1014700005900E481038026842F0020202600068CF
:1014800000F0020005904FF4604000900220CDE98A
:101490000101032003900520049069460448FFF7EA
:1014A000EDFA06B010BD00000038004040380240A0
:1014B000000402402DE9F84F044690F85000002740
:1014C0000A9E1D4692468B464FF0010901280ED018
:1014D000012084F85000FFF7CFFB804694F85100BC
:1014E000616801280CD0B1F5827F07D102E00220AB
:1014F000BDE8F88FA16809B9042801D00227C2E02D
:10150000BBF1000F27D0BAF1000F24D01DB394F81F
:101510005100042802D0052084F8510000206065A5
:10152000C4F838A0E587A587C4F830B0E586A5865D
:101530002064606420680168490603D4016841F0B2
:1015400040010160E068B0F5006F606805D0E8B365
:10155000012D46D07FE0012795E008B1012D39D15A
:10156000206B21680088C860206B801C2063E08E9F
:10157000401EE0862EE02068816889070FD5E18E45
:1015800069B1B9F1010F0AD1216B0988C160206BE3
:10159000801C2063E08E401EE0864FF0000920682A
:1015A0008168C9070CD0E18F51B1C068A16B088078
:1015B000A06B801CA063E08F401EE0874FF0010904
:1015C000FFF75AFBA0EB0800B04200E009E001D3AE
:1015D000701C50D1E08E0028CDD1E08F0028CAD1F8
:1015E0003FE0206B216800780873206B401C20636B
:1015F000E08E401EE0862EE02068816889070FD5C6
:10160000E18E69B1B9F1010F0AD1216B097801733B
:10161000206B401C2063E08E401EE0864FF00009E6
:1016200020688168C9070CD0E18F51B1C068A16BF7
:101630000870A06B401CA063E08F401EE0874FF055
:101640000109FFF719FBA0EB0800B04202D3701CA0
:1016500001D010E07EB1E08E0028CDD1E08F0028CF
:10166000CAD142463146204600F050FC28B101273D
:101670002020606507E0032705E0A06818B920680E
:10168000C16880680090012084F85100002084F82F
:10169000500038462CE77047704710B5040003D05F
:1016A00094F83D0010B107E0012010BD002084F83F
:1016B0003C00204600F01EF8022084F83D00211D69
:1016C000206800F019FD012084F8460084F83E00EF
:1016D00084F83F0084F8400084F8410084F8420018
:1016E00084F8430084F8440084F8450084F83D0001
:1016F000002010BD7047000090F83D10012901D076
:1017000001207047022180F83D100168CA6842F04C
:101710000102CA6000681149884214D0B0F1804FBC
:1017200011D00F4988420ED00E4988420BD00E4985
:10173000884208D00D49884205D00D49884202D020
:101740000C49884204D1816801F00701062903D0C1
:10175000016841F001010160002070470000014074
:101760000004004000080040000C0040000401405C
:101770000040014000180040704770B50446006802
:1017800001694FF00005C943890715D4C168C943F1
:10179000890711D4E91E0161012020772068806942
:1017A0008007204602D0FFF7E7FF04E000F098F83A
:1017B000204600F096F8257720680169C94349075B
:1017C00017D4C168C943490713D46FF004010161FC
:1017D000022020772068806910F4407F204602D0E4
:1017E000FFF7CAFF04E000F07BF8204600F079F82C
:1017F000257720680169C943090716D4C168C94320
:10180000090712D46FF008010161042020772068D5
:10181000C0698007204602D0FFF7AEFF04E000F069
:101820005FF8204600F05DF8257720680169C9431C
:10183000C90617D4C168C943C90613D46FF0100193
:101840000161082020772068C06910F4407F20469D
:1018500002D0FFF791FF04E000F042F8204600F0CC
:1018600040F8257720680169C943C90708D1C168D4
:10187000C943C90704D1891E0161204600F032F82E
:1018800020680169C943090609D4C168C94309062A
:1018900005D46FF0800101612046FFF7FCFE20684F
:1018A0000169C943490609D4C168C943490605D439
:1018B0006FF040010161204600F01EF820680169C8
:1018C000C94389060BD4C168C943890607D46FF0A0
:1018D000200101612046BDE87040FFF7DDBE70BD0C
:1018E0007047704700680349884201D1FFF7CAB9C1
:1018F00070470000000001407047704710B5044673
:101900000068406994F83D10C0F3C010212911D13E
:1019100080B12068143050E8001F21F0800140E8B9
:101920000012002AF5D1606B08B1FEF7DAFE2046FE
:1019300000F00EFD2068406994F83E10C0F380105E
:10194000222911D180B12068143050E8001F21F005
:10195000400140E80012002AF5D1A06B08B1FEF763
:10196000C0FE204600F0CDFC002010BD70470000F6
:10197000F8B5016804460868CA684B6910F00F0F93
:101980004FF0000559D003F0010602F49077374379
:1019900065D0C10705D0D10503D5216C41F0010107
:1019A0002164410705D5D90703D0216C41F002011C
:1019B0002164810705D5D90703D0216C41F00401CA
:1019C0002164010707D502F02001314303D0216CC7
:1019D00041F008012164216C00293AD0800604D529
:1019E000900602D5204600F0C1FC20684069216CB9
:1019F000C0F38010090700D460B3204600F081FCDA
:101A000020684069400621D52068143050E8001F46
:101A100021F0400140E80012002AF5D1A06BA8B1E6
:101A20006C490165A06BFEF7A5FE002811D0A06BE4
:101A3000016D01B0BDE8F040084783060FD593065D
:101A40000DD52046BDE8F84000F090BC2046FFF7D9
:101A50008DFFF8BD2046FFF789FF2564F8BD266B92
:101A60002023012E79D1C60677D5D60675D508680C
:101A7000486800904869400640D5A16B08684068F6
:101A80000004000CEAD0A28D8242E7D9E085C86943
:101A9000B0F5807F2DD020680C3050E8001F21F475
:101AA000807140E80012002AF5D12068143050E817
:101AB000001F21F0010140E80012002AF5D1206842
:101AC000143050E8001F21F0400140E80012002AC5
:101AD000F5D184F83E30256320680C3050E8001FB3
:101AE00021F0100140E80012002AF5D1A06BFEF7AA
:101AF000F8FDA08DE18D401A81B229E0A08DE18D25
:101B0000401A81B2E08D0028A8D00029A6D0206814
:101B10000C3050E8002F22F4907240E80026002E8E
:101B2000F5D12068143050E8002F22F0010240E87F
:101B30000026002EF5D184F83E30256320680C3055
:101B400050E8002F22F0100240E80023002BF5D1CE
:101B50002046FFF7D2FEF8BDFFE705062BD5150698
:101B600029D594F83D002128F5D1A068B0F5805F13
:101B700001D12069B0B1206A411C2162216800783E
:101B80004860E08C401E0004000CE084E3D1206833
:101B9000C16821F08001C1602068C16841F0400146
:101BA000C160D8E7206A0088C0F308004860206A56
:101BB000801C2062E5E74006CDD55006CBD5CA682B
:101BC000204622F04002CA6084F83D3000F00AF955
:101BD000C1E70000C121000870B5040004D094F8EA
:101BE0003D00002510B106E0012070BD84F83C5096
:101BF000204600F023F8242084F83D002068C168C6
:101C000021F40051C160204600F010FC20680169F9
:101C100021F4904101612068416921F02A0141616C
:101C20002068C16841F40051C1602564202084F817
:101C30003D0084F83E00002070BD00002DE9F04317
:101C400087B0064614216846FEF732FC30493068FA
:101C5000884259D12F480024016841F010010160E9
:101C6000006800F0100005902A481438016841F01F
:101C7000010101600068694600F0010005904FF421
:101C8000C06000900220CDE90104032003900720EA
:101C900004902148FEF7F2FE214D20484FF00067E6
:101CA0002860C5E901744FF48068C5E903486C6198
:101CB0004FF40039AC61C5E9074928466C62FEF76C
:101CC0003BFE08B1FEF70BFDB563AE631348154D3F
:101CD0007830E5E802074020A5E81101114845F8F1
:101CE0001449AC61C5E907496C62FEF725FE08B1ED
:101CF000FEF7F5FC7563002205212520AE63FFF792
:101D000053F82520FFF742F807B0BDE8F083000044
:101D1000001001404438024000000240406402408C
:101D2000E80100204802002090F83E30202B0ED120
:101D300059B152B190F83C30012B08D0012380F802
:101D40003C300023036300F0F7BB01207047022002
:101D5000704770477047000070B5044690F83D002A
:101D6000202836D191B38AB394F83C00012830D0B2
:101D7000012084F83C002162A284E28400252564CD
:101D8000212084F83D00636B1348D863636B1348CC
:101D90001864636B1248D864606B13460565266847
:101DA000606B321DFEF732FE21686FF04000086064
:101DB00084F83C502068143050E8001F41F0800146
:101DC00040E80012002AF5D1002070BDFFE7012095
:101DD000FBE70220F9E70000B7220008F92200081B
:101DE000D121000870477047FEE700002DE9F0415F
:101DF00086B014216846FEF75BFB1F48002401688B
:101E000041F080010160016801F0800105910168E5
:101E100041F002010160016801F0020105910168D1
:101E200041F0010101600068012200F00100134F40
:101E3000D502059029463846FEF718FFDFF84080A6
:101E4000EE10002231464046FEF710FF0320CDE998
:101E5000024000950125694601953846FEF70EFEC1
:101E60000096CDE90154694640460394FEF706FE0C
:101E700006B0BDE8F08100003038024000040240A6
:101E8000000002400F4810B50D4901604FF4827107
:101E90004160002102228160C0E9031201224261F7
:101EA0005202C0E906210162416281620A21C162D7
:101EB000FFF76CFA002801D072B6FEE710BD0000F3
:101EC000003800404C01002010B50E4C0C480C218D
:101ED00020604FF4E13060600020A060E060C4E961
:101EE0000401A061E0612046FFF776FE08B172B6FA
:101EF000FEE72068C16841F01001C16010BD00001C
:101F000000100140A4010020FEE7FEE738B50446BA
:101F10001248134B0068B0FBF3F04FF47A73584348
:101F200000906068B0F5827F0DD10B4600920022D0
:101F30008021204600F016F870B1606D40F020005E
:101F40006065032038BD009830B1401E00902068C5
:101F50008068C0430006F6D5002038BD240000206C
:101F600000366E012DE9F8431E4691468846044628
:101F7000089DFEF781FE401B351AFEF77DFE0746E1
:101F800025480068C0F3CB30684338E0701C37D078
:101F9000FEF772FEC01BA84203D215B1009860B3D1
:101FA0002CE02068416821F0E00141606068B0F5F4
:101FB000827F0BD1A068B0F5004F02D0B0F5806FE2
:101FC00004D12068016821F040010160A06AB0F5E9
:101FD000005F09D12068016821F400510160206888
:101FE000016841F400510160012084F85100002093
:101FF00084F850000320BDE8F8830025401E0090BF
:102000002068816838EA010004D000214945BDD12B
:102010000020F0E70121F9E7240000204FF47A7452
:10202000204600F06BFDFBE710B54FF0E0200069A3
:1020300002F014F9012803D0BDE8104001F022BEDF
:1020400010BD000030B593B030216846FEF730FA7D
:1020500014210CA8FEF72CFA1E480025016841F057
:1020600080510160006800F0805011901A480168AA
:1020700041F4804101600068022400F48040119026
:1020800001200090000401908001CDE90640082065
:1020900008904FF4A870CDE9090404200B9068461D
:1020A000FEF7BEFF08B172B6FEE70CA90F2081E86B
:1020B00031004FF4A0500F904FF480501090052144
:1020C0000CA8FEF7A3FE002801D072B6FEE713B0FD
:1020D00030BD0000403802400070004002480168F6
:1020E00041F470010160704788ED00E00148FFF79E
:1020F00044BB0000A8020020F0B50268254C264D24
:10210000264E274F274B4FF0804CA04209D0604508
:1021100007D0A84205D0B04203D0B84201D09842BF
:1021200004D122F0700E4A6842EA0E02A0421BD08F
:10213000604519D0A84217D0B04215D0B84213D08C
:10214000984211D0184DA8420ED0184DA8420BD07D
:10215000174DA84208D0174DA84205D0164DA842E9
:1021600002D0164DA84203D122F44075CA682A4312
:102170004D6922F080022A4302608A68C2620A68BE
:102180008262A04201D0984201D109690163012114
:102190004161F0BD00000140000400400008004023
:1021A000000C004000040140004001400044014098
:1021B0000048014000180040001C00400020004082
:1021C00010B5806B0021C185C184FFF7CFFB10BD26
:1021D00070B5846B2068406994F83D10C0F3C0105E
:1021E0000025212904D118B1E584204600F0B0F87B
:1021F0002068406994F83E10C0F38010222904D171
:1022000018B1E585204600F07CF8206C40F0100005
:1022100020642046FFF7AAFB70BD10B50146806B15
:1022200009680968C9052FD40021C18501680C31EE
:1022300051E8002F22F4807241E80023002BF5D1F1
:102240000168143151E8002F22F0010241E8002317
:10225000002BF5D10168143151E8002F22F0400223
:1022600041E80023002BF5D1202180F83E10016BBE
:10227000012909D101680C3151E8002F22F0100228
:1022800041E80023002BF5D1016B012902D0FFF7B3
:1022900060FD10BD818DFFF730FB10BD10B5806B68
:1022A000016B012902D0FFF755FD10BD818D490852
:1022B000FFF723FB10BD10B50146806B0968096864
:1022C000C90516D40021C1840168143151E8002FDA
:1022D00022F0800241E80023002BF5D101680C3187
:1022E00051E8002F42F0400241E80023002BF5D1D5
:1022F00010BDFFF777FD10BD10B5806BFFF773FDC4
:1023000010BD01680C3151E8002F22F4907241E8B1
:102310000023002BF5D10168143151E8002F22F081
:10232000010241E80023002BF5D1016B012909D1FD
:1023300001680C3151E8002F22F0100241E800231F
:10234000002BF5D1202180F83E1000210163704759
:1023500001680C3151E8002F22F0C00241E800234F
:10236000002BF5D1202180F83D10704708B590F87A
:102370003E10222901D0022008BD82684FF480530C
:102380009A4201D1016921B1816A9A421BD04AB1B6
:102390000AE00268816A5268C2F308020A80816A10
:1023A000891C08E0026972B10268526802F07F027B
:1023B0000A70816A491C8162C18D491E0904090C99
:1023C000C18503D019E002685268F1E70168CA6864
:1023D00022F02002CA600168CA6822F48072CA60D2
:1023E00001684A6922F001024A61202180F83E100A
:1023F000016B012903D0FFF7ACFC002008BD0021D0
:10240000016301680C3151E8002F22F0100241E80D
:102410000023002BF5D101680A68D20602D50A68AC
:1024200049680091818DFFF768FAE6E770B50446C8
:1024300000680169E26821F440511143016121699A
:10244000A068E26908436169114308432168CA68CA
:1024500049F20C639A430243CA6020684169A26949
:1024600021F440711143416131492068884202D012
:102470003049884202D1FEF793FD01E0FEF780FD6E
:10248000E2690023192164253226B2F5004F626803
:1024900028D0A0FB0101930F9200FDF745FF0146F4
:1024A000B0FBF5F06FF01802504301EB800006EB33
:1024B0000010B0FBF5F000F0F002B1FBF5F002EB1C
:1024C0000012B1FBF5F06FF01803584301EB8000E8
:1024D00006EB0010B0FBF5F000F00F00216810448F
:1024E000886070BDA0FB010192185B41FDF71CFFE5
:1024F0000146B0FBF5F00201B1FBF5F06FF01803F7
:10250000584301EB800006EBC000B0FBF5F000F093
:10251000F80002EB4002B1FBF5F0584301EB8000FC
:1025200006EBC000B0FBF5F000F00700D6E70000B6
:10253000001001400014014038B5816282850025F9
:10254000134604460564222084F83E00A26B1C4812
:10255000D063A26B1B481064A26B1B48D064A06BB5
:102560000A4605652168A06B091DFEF74FFA206831
:1025700001684068009084F83C50206948B12068A8
:102580000C3050E8001F41F4807140E80012002A2E
:10259000F5D12068143050E8001F41F0010140E8F7
:1025A0000012002AF5D12068143050E8001F41F0D5
:1025B000400140E80012002AF5D1002038BD00009B
:1025C0001B2200089D220008D121000810B50348F5
:1025D000FFF7CEF9BDE8104001F07EB8A40100205D
:1025E000FEE70907090E002804DB00F1E02080F86F
:1025F0000014704700F00F0000F1E02080F8141D77
:10260000704710B500231A4603E0845C521C234433
:10261000DBB28A42F9D3D843C0B210BD08B501F08D
:10262000F9F800220121642001F042FB134C402103
:102630002060134800F02AF8402212491248FFF7A0
:1026400073FB01F007F90E4D0026012001F026F87A
:102650000BE000226946206801F0D2FC012804D179
:102660009DF80010064800F0CAFA287A0028F0D039
:102670002E72686800F0FEFAE7E700000400002010
:1026800028010020E8000020A401002070B50025EA
:1026900004460572457285720180084600F04EFFBF
:1026A0006060658070BD00003EB50446002000906B
:1026B000019002900C2269461F2000F01FF9BDF81E
:1026C000000040BA00B200EE100A2548B8EEC00A79
:1026D000D0ED000A20EE200A84ED000ABDF80210B9
:1026E00049BA09B200EE101AF8EEC00A90ED000ADD
:1026F00060EE800AC4ED010ABDF8041049BA09B2BF
:1027000000EE901AF8EEE00A20EE800A84ED020A4C
:10271000BDF8061049BA09B200EE101AF8EEC00A68
:1027200090ED010A60EE800AC4ED030ABDF80800CE
:1027300040BA00B200EE900AF8EEE00A60EE800ABD
:10274000C4ED040ABDF80A0040BA00B200EE900AD7
:10275000F8EEE00A20EE800A84ED050A3EBD000096
:102760001000002008B500200090022269461D20BC
:1027700000F0C4F8BDF8000040BA00B202F056F90B
:102780009FED081B53EC112B01F0F8FF9FED071B89
:1027900053EC112B01F04AFF01F016FF00EE100A76
:1027A00008BD00008FC2F5285C8F6040000000006B
:1027B0000000394010B5752000F07EF80446002175
:1027C000762000F037F90121762000F033F96420FB
:1027D00001F0F8F8422C02D04FF0FF3010BD01217B
:1027E000762000F027F902217A2000F023F9002159
:1027F000762000F01FF94021162000F01BF965201B
:1028000000F05AF804460021652000F013F9002179
:10281000602000F00FF90221612000F00BF9214641
:10282000652000F007F963215F2000F003F9002123
:10283000762000F0FFF83621142000F0FBF800218C
:10284000762000F0F7F8652000F036F840F004013B
:10285000652000F0EFF8012000F070F800217620EC
:1028600000F0E8F8502000F027F840F0290150204F
:1028700000F0E0F8012000F085F80021762000F05B
:10288000D9F84F2000F018F840F029014F2000F04F
:10289000D1F80021762000F0CDF84E2000F00CF8A1
:1028A00020F0200040F00F014E2000F0C3F801207E
:1028B00001F088F8002010BD7CB5002140F08000B8
:1028C0000D4D8DF800108DF804000A464FF4006499
:1028D00021462846FEF7CAF9012101A800F09CF81C
:1028E0000121684600F098F8012221462846FEF7AB
:1028F000BDF99DF800007CBD00040240F8B540F031
:1029000080000D4E14460F468DF800004FF4006510
:10291000002229463046FEF7A9F90121684600F059
:102920007BF8E1B2384600F077F8012229463046BC
:10293000FEF79CF9F8BD0000000402400C4998B174
:1029400001280ED0022807D0032802D091ED000AFA
:1029500070479FED080A01E09FED070A81ED000A2C
:1029600070479FED060AF9E79FED050AF6E70000BC
:10297000100000200000803800000039000080397D
:102980000000003A1249082805D2DFE800F01E1BBB
:102990001815120F0A0791ED010A70479FED0D0AF5
:1029A00001E09FED0D0A81ED010A70479FED0B0AD2
:1029B000F9E79FED0B0AF6E79FED0A0AF3E79FEDB3
:1029C0000A0AF0E79FED090AEDE79FED090AEAE739
:1029D000100000200000F23900007A3A0000FA3AB4
:1029E00000007A3B0000FA3B00007A3C0000FA3C11
:1029F00000007A3D01B582B000208DF8040005206A
:102A00000090012301AA02A90248FEF753FD9DF898
:102A100004000EBD4C01002070B50E460446002592
:102A200005E02078FFF7E6FF04F8010B6D1CB542C6
:102A3000F7DB70BD33B581B000F07F000B4D8DF832
:102A400000004FF40064002221462846FEF70EF9EC
:102A500001216846FFF7E0FF012102A8FFF7DCFF34
:102A6000012221462846FEF701F93EBD000402403E
:102A7000FFF7A0FE0348FFF717FE0A2000F00EFE46
:102A8000F8E700003401002008B5FEF703F9FFF76E
:102A9000D9FAFFF7ABF91548016841F480010160EC
:102AA0000068002200F48000009005213A20FEF723
:102AB0007BF93A20FEF76AF9002205214620FEF74D
:102AC00073F94620FEF762F9FFF7FEF9FFF7DAF92E
:102AD00000F0B8FD00F020F8054A0021054800F09C
:102AE00049F80549086000F029F8FEE7303802404F
:102AF000EC4C00081D2000080800002010B5EFF382
:102B0000058111B16FF0050403E0002408B100F065
:102B100059FF204610BD0000EFF3058010B16FF0A3
:102B2000050070470448016811B14FF0FF3070474D
:102B300001210160002070477800002010B5EFF3FC
:102B4000058010B16FF0050010BD0848016801292B
:102B500002D04FF0FF3010BD054A002182F8141D4D
:102B60000221016000F096FF002010BD78000020D7
:102B70000BE000E02DE9FF414FEA01034FF00005B3
:102B8000EFF30581039549BB40B38027182100244A
:102B90004AB3166806B1344696691EB13146761EB0
:102BA000382E02D21679F60703D0002004B0BDE813
:102BB000F081566906B1B708D2F808C0BCF1000F21
:102BC0000DD0D5685C2D18D312693AB136B18DE8B5
:102BD00006103A46214601F016FB03900DE0D66838
:102BE0005EB912694AB903AACDE90012BAB2214608
:102BF00001F0DCFA012800D003950398D6E770B500
:102C00000446007A0125002638B96288606881543C
:102C1000EF2915D0FE2911D06672A07A08B3628818
:102C200060688178891C8A421BD98178091DFFF769
:102C3000E8FC6672A672668090B112E06572ECE7FD
:102C4000607A0028E9D06672A5726168FE2008707B
:102C50006168EF2048702088616888706580DCE7D3
:102C600025726088401C608060882188884200D37B
:102C7000668070BDF8B54849C078FE25EF26474C00
:102C8000087005287DD2DFE800F0858585031E00E9
:102C9000FFF768FD8DED000A00206946C0F10302D0
:102CA00023188A5C1A71401C0428F7DB25706670B3
:102CB0000520A0700320E07008213848FFF7A1FC30
:102CC0002072092262E036490022684691ED000A2E
:102CD0008DED000AC2F10303A718C35C3B71521CBF
:102CE000042AF7DB91ED010A5FF000028DED000A86
:102CF000C2F10303A718C35C3B72521C042AF7DB22
:102D000091ED020A5FF000028DED000AC2F10303AB
:102D1000A718C35C3B73521C042AF7DB91ED030A2E
:102D20005FF000028DED000AC2F10303A718C35C37
:102D30003B74521C042AF7DB91ED040A5FF0000299
:102D40008DED000AC2F10303A718C35C3B75521C4A
:102D5000042AF7DB91ED050A5FF000018DED000A12
:102D6000C1F103026318825C1A76491C0429F7DB5F
:102D7000257066701920A0700420E0701C2107489F
:102D800000E007E0FFF73DFC20771D2203490548DE
:102D9000FEF7E2FFF8BD00000C000020A8000020B4
:102DA00034010020A40100202DE9F041134C0F460E
:102DB0000546E6682068001D00F0D0FC681C07D1BD
:102DC00037B12168BDE8F0410D48091D00F016BD7E
:102DD00020683544B5424560216805D2A06BBDE846
:102DE000F041091D00F0F2BC606B091D00F0EEFC23
:102DF000A06A854200D2A562BDE8F08128000020CB
:102E0000E00700202DE9F041054600F003FD2D4CC0
:102E1000A068401CA06020682B4F10B1606930B3DF
:102E20002BE02560A068012827D1002606EB86004C
:102E300007EB800000F0BCFC761C382EF6D323484C
:102E400000F0B6FC2148143000F0B2FC1F482830D6
:102E500000F0AEFC1D483C3000F0AAFC1B4850308E
:102E600000F0A6FC194860631430A06305E02068F8
:102E7000E96AC06A884200D82560606A401C6062C6
:102E80006864E86A2169884200D9206100EB80000B
:102E900007EB8000291D00F0B1FC00F0DBFC60694D
:102EA00000280CD02068E96AC06A884207D2084925
:102EB0004FF080500860BFF34F8FBFF36F8FBDE8B6
:102EC000F08100002800002030030020900700203F
:102ED00004ED00E038B500F09DFC104C2068C8B946
:102EE0000F4800F065FC0E48143000F061FC0C48FF
:102EF000E060143020610A4B0020F03B009003F1A9
:102F0000500210210A2000F0F4FE206010B105A14B
:102F100000F022FDBDE8384000F09CBC64000020B9
:102F2000E4080020546D72510000000030B4026CBF
:102F30000B46002A0BD0C1681144C1608468A142CD
:102F400001D30168C16030BC1846FDF764BA30BCDB
:102F500070472DE9F041856B174604460026026C48
:102F600082B1C7B1E068FDF756FAE168206C091A32
:102F7000E1602268914202D2A168081AE060022F43
:102F800016D017E02068A8B9A06801F0DFF906465E
:102F90000020A0600EE06068FDF73DFA216C6068DB
:102FA00008446060A168884204D32068606001E042
:102FB00005B16D1E6D1CA5633046BDE8F08110B5EE
:102FC000044690F8590058B101280CD002280FD0BF
:102FD000502080F31188BFF34F8FBFF36F8FFEE750
:102FE000206B00F04BFC2046BDE8104000F046BCD2
:102FF00010BD000010484FF47051420706D0C01DAC
:103000000D4920F00700411AC1F570510B4A002309
:103010000144C2E900030839183A21F007011160A0
:103020004B600B600B1AC0E9001393604FF0004037
:103030005360506170470000C40F002094000020CE
:10304000144E154CA6F29C474FF08058DFF84C9078
:1030500012E000BF00F0DEFBF068C568281D00F03C
:103060007DFBA068401EA0606068401E606000F0AC
:10307000F1FB2846FFF7A3FF60680028EAD1386813
:103080000128F9D9C9F80080BFF34F8FBFF36F8FC4
:10309000F2E70000CC0700202800002004ED00E04B
:1030A00070B51D46049C51B1C4F80020C4E90F015D
:1030B0000121204600F050FE84F84C5070BD246081
:1030C000F4E700002DE9F05F8846DDE90B94154632
:1030D000834691009A460A9EA522206BFDF7E0F9EF
:1030E0006FF00301206B01EB8501084420F0070716
:1030F000780707D0502080F31188BFF34F8FBFF3BC
:103100006F8FFEE70025B8F1000F0FD05FF00000D1
:10311000221818F8001082F8341018F8001011B1B5
:10312000401C1028F4D384F8435001E084F8345054
:10313000382E00D33726E662C4E91365201D00F05F
:1031400042FB04F1180000F03EFB2461C6F1380098
:103150006462A061656584F8585052465946384605
:1031600000F05AFA2060B9F1000F01D0C9F8004010
:10317000BDE8F09F30B5114900E011460A6882426F
:10318000FBD34B685C18844203D140681844486004
:10319000084643681C18944209D1084C183C24681E
:1031A000A24209D052681A4442600A68126802605A
:1031B000814200D0086030BD0460F9E7940000202F
:1031C00070B5002441600B4D0061914206D8D11AC0
:1031D0008269914206D2011D286907E09A4203D212
:1031E000994201D3012403E0011DE86800F0EEFAE2
:1031F000204670BD6400002010B5044600F00AFBB4
:10320000A06B28B15FF0000400F024FB204610BD45
:103210000124F9E730B589B03C4D6EE004980028F0
:1032200006DADDE90601059A90470498002864DB78
:10323000069C606910B1201D00F090FA03A800F010
:10324000D7F8024604980A2857D2DFE800F00505AF
:10325000052D334A05052D3394F8280040F0010070
:1032600084F828000599A069059B01442046FFF7D2
:10327000A7FF68B3216A2046884794F828004007D2
:103280003BD5002000900598A169002342181946FB
:10329000204601F065F9D8B9502080F31188BFF3BA
:1032A0004F8FBFF36F8FFEE714F8280F20F0010057
:1032B000207022E094F8280040F0010084F82800F3
:1032C0000598A06128B1811813462046FFF778FFC2
:1032D00013E0502080F31188BFF34F8FBFF36F8F3F
:1032E000FEE794F82800810703D4204600F0C6FAD0
:1032F00003E020F0010084F82800002204A92868D7
:1033000000F07EFE002889D109B030BD64000020A5
:103310002DE9FC410F46054600F000FC01A800F035
:1033200067F80446019818B101F088F8BDE8FC81FF
:10333000254EAFB130690068D0B30027291B3A464B
:10334000306800F01DFB01F079F80028EED11F492C
:103350004FF080500860BFF34F8FBFF36F8FE5E7EA
:10336000A542EBD801F06AF8F0682746C068C46847
:10337000201D00F0F3F994F82800410719D5A06941
:103380002B4641193A462046FFF71AFFA8B1002004
:103390000346014600902A46204601F0E1F860B954
:1033A000502080F31188BFF34F8FBFF36F8FFEE77C
:1033B00007E020F0010084F82800216A20468847B1
:1033C000B4E70127BAE700006400002004ED00E044
:1033D0000648416B096829B1416BC968C9684968E9
:1033E000816270474FF0FF31FAE7000028000020AB
:1033F00070B5054600F040FF064E0446B0688442B2
:1034000003D200F009F8012000E0002028602046E7
:10341000B46070BD64000020F8B5194D20E0C068AC
:10342000C4680668201D00F099F9216A2046884783
:1034300094F82800400713D5A0693044B04206D95B
:1034400024616060211DE86800F0C0F908E00020F8
:103450000346014600903246204601F081F838B11B
:10346000E86801680029DAD12969C5E90310F8BDC7
:10347000502080F31188BFF34F8FBFF36F8FFEE7AB
:103480006400002008484068401C4FF0500080F362
:10349000118804D0BFF34F8FBFF36F8FFEE7BFF3E8
:1034A0004F8FBFF36F8FFEE79C000020074CE06852
:1034B000016841B1C0680021D0F80000FFF728FF83
:1034C000FFF7A8FEF3E701210020F7E764000020E2
:1034D0002DE9F041044600F09DF994F9455004F1BE
:1034E000240609E0606A48B1304600F06FFF08B179
:1034F00000F096FA6D1E6DB2002DF3DC4FF0FF3632
:1035000084F8456000F0A6F900F084F994F944507D
:1035100004F1100709E0206948B1384600F056FF71
:1035200008B100F07DFA6D1E6DB2002DF3DC84F859
:103530004460BDE8F04100F08DB900002DE9F04194
:103540000546002700F0EAFA324E306808B9FFF766
:1035500051FD706905424ED1C5B3083568070ED0DC
:1035600005F00700C0F108000544680707D05020A7
:1035700080F31188BFF34F8FBFF36F8FFEE72DB33A
:103580007068854237D82348183001460C6801E03E
:1035900020460C466168A94202D221680029F7D171
:1035A00031688C4227D0076821680160606808375D
:1035B000411B10290FD96019420708D0502080F311
:1035C0001188BFF34F8FBFF36F8FFEE713E04160A9
:1035D0006560FFF7CFFD61687068401A7060B2687F
:1035E000904200D2B060706901430020C4E900013C
:1035F000F068401CF06000F021FF780707D05020F1
:1036000080F31188BFF34F8FBFF36F8FFEE738460B
:10361000BDE8F0817C00002010B5031F4FF08074DE
:103620001C601B1F21F001011960191F044B0B6066
:1036300014390A60091F6FF0020244380A6010BD95
:10364000853400087CB5002502242B46802209A180
:103650000D48CDE9004500F0A9FD002380220BA113
:103660000D48CDE9004500F0A1FDBDE87C4000F02B
:1036700011BA0000636F6D756E69636174696F6E76
:103680005F7461736B0000001D260008696D755F33
:103690007461736B00000000712A0008002817D0C5
:1036A0004FF47A71484300EE100A9FED0A1AF8EEC3
:1036B000400A80EE810A10EE100AB0F17E5F01DA56
:1036C000012003E0BCEEC00A10EE100A00F07AB947
:1036D0007047000000007A44F8B51A480068016895
:1036E000C943C9062DD40168406800901548FEF70B
:1036F00005F9154800684068144DC0F14000287075
:10370000134E3068B0B10024124F06E0391900237F
:103710006A46306800F014FC641C28788442F5DBAB
:10372000009838B10C494FF080500860BFF34F8FBC
:10373000BFF36F8FBDE8F840402206490148FEF70D
:10374000F3BAF8BDA4010020E80100200000002029
:1037500004000020E800002004ED00E0D0E9013280
:1037600001699A60D0E901235A604A68824201D116
:1037700082684A60002202610868401E086008688A
:1037800070470000034B036003F15C000860802079
:10379000106070470C090020044B036003F15C00CB
:1037A00008604FF48070106070470000680B0020C4
:1037B00000F108014FF0FF32C0E90112C160016160
:1037C00000210160704700210161704730B50B682E
:1037D0005A1C02D000F1080202E0026904E022460D
:1037E000546825689D42FAD953684B6099608A6095
:1037F000516008610168491C016030BD42684A603F
:1038000093688B6093685960916008610168491CF6
:1038100001607047502080F31188BFF34F8FBFF3D2
:103820006F8F0A494868401C486001280CD108483D
:10383000006810F0FF0F07D0502080F31188BFF30D
:103840004F8FBFF36F8FFEE7704700009C00002092
:1038500004ED00E00849486828B1401E486001D1E5
:1038600080F311887047502080F31188BFF34F8F89
:10387000BFF36F8FFEE700009C00002070B50028AA
:103880002AD0164DA0F1080460686969084207D182
:10389000502080F31188BFF34F8FBFF36F8FFEE787
:1038A00022683AB1502080F31188BFF34F8FBFF3E5
:1038B0006F8FFEE78843606000F030F960686968E8
:1038C000084468602046FFF755FC2869401C2861C1
:1038D000BDE8704000F0B2BD70BD00007C0000206B
:1038E0004FF0E02000210161816105494FF47A72B7
:1038F0000968B1FBF2F1491E41610721016170477E
:103900002400002010B5FCF7EBFC114910280ED361
:1039100000F1E02090F8F0030A78904207D250209E
:1039200080F31188BFF34F8FBFF36F8FFEE7094815
:103930000068896800F4E060884207D9502080F36D
:103940001188BFF34F8FBFF36F8FFEE710BD0000EC
:103950009C0000200CED00E010B5084B002200BFD9
:1039600053F832401CB1521C082AF9D310BD43F859
:10397000321003EBC201486010BD0000F0020020CD
:1039800070B515460E460446FFF744FF94F94410FF
:103990000020491C01D184F8440094F94510491CC9
:1039A00001D184F84500FFF755FFA06B28B92A46DE
:1039B000314604F1240000F051F82046BDE8704083
:1039C000FFF786BD10B5020014D00F48006B38B168
:1039D000502080F31188BFF34F8FBFF36F8FFEE746
:1039E00000F09CF800211046FFF7DEF900F026FDFC
:1039F000002807D105494FF080500860BFF34F8F72
:103A0000BFF36F8F10BD00002800002004ED00E020
:103A100002490A6A0260C9684160704728000020B4
:103A200001490120C86170472800002010B50C46EC
:103A300050B1094909681831FFF7C8FE2046BDE8B2
:103A400010400121FFF7B0B9502080F31188BFF377
:103A50004F8FBFF36F8FFEE72800002070B514462C
:103A60000D4668B10A4909681831FFF7C7FE0CB165
:103A70004FF0FF3521462846BDE87040FFF794B966
:103A8000502080F31188BFF34F8FBFF36F8FFEE795
:103A90002800002030B587B00024039405AA04A9AB
:103AA00003A80494FFF76EFEDDE903010094CDE95D
:103AB0000110002315A11748059A00F0A4FB164D2C
:103AC0000028E8621FD000F01BFD012809D0401C2F
:103AD00019D1502080F31188BFF34F8FBFF36F8F40
:103AE000FEE7502080F31188BFF34F8FBFF36F8F35
:103AF0004FF0FF30A86201206861EC6007B0BDE8BC
:103B0000304000F045B807B030BD000049444C4596
:103B10000000000041300008280000200248016B2E
:103B2000491C01637047000028000020164810B5AA
:103B3000016B11B10121C16110BD0021C161016999
:103B4000124A01E0B9B1491E01EB810352F823305A
:103B5000002BF7D001EB810302EB830202F1080492
:103B600053685B685360A34201D15B685360DA68B5
:103B70000260016110BD502080F31188BFF34F8FA8
:103B8000BFF36F8FFEE70000280000203003002005
:103B90001CB537480168374A914207D1502080F35D
:103BA0001188BFF34F8FBFF36F8FFEE70068314975
:103BB000491E884207D1502080F31188BFF34F8FF0
:103BC000BFF36F8FFEE72C4908780190FF20087043
:103BD00008788DF800009DF800009DF8002000F0A6
:103BE000F000904207D0502080F31188BFF34F8F30
:103BF000BFF36F8FFEE79DF80000204C00F05000EF
:103C000020700720A06005E09DF8002052008DF88C
:103C10000020401E9DF800201206F5D4A060032865
:103C200007D0502080F31188BFF34F8FBFF36F8F01
:103C3000FEE74FF44070A060019808700C482030F7
:103C4000016841F470010160016841F07041016058
:103C5000FFF746FE00206060FCF70AFB0848016899
:103C600041F040410160FCF7EFFA00201CBD00006C
:103C700000ED00E071C20F4100E400E09C00002074
:103C800034EF00E010B5502080F31188BFF34F8F60
:103C9000BFF36F8F00F0F6FA18B104494FF080506F
:103CA0000860002080F3118810BD000004ED00E0E2
:103CB000F8B517460E46050013D005FB06F0503048
:103CC000FFF73CFC04000AD0002084F8460004F111
:103CD00050023B46314628460094FFF7E1F9204662
:103CE000F8BD502080F31188BFF34F8FBFF36F8F63
:103CF000FEE738B5049D18B153B1CAB181B120E0D7
:103D0000502080F31188BFF34F8FBFF36F8FFEE712
:103D1000502080F31188BFF34F8FBFF36F8FFEE702
:103D2000502080F31188BFF34F8FBFF36F8FFEE7F2
:103D300039B1502080F31188BFF34F8FBFF36F8FDD
:103D4000FEE750241C46012384F846302B4600949D
:103D5000FFF7A6F9204638BD70B50D46040025D002
:103D6000FFF758FDD4E90F20216802FB0011A16084
:103D70000021A163216861600A46D4E90F01401E59
:103D800000FB0121E16021464FF0FF3001F8440FB4
:103D9000487004F110008DB1FFF70AFD04F1240012
:103DA000FFF706FDFFF756FD012070BD502080F3A0
:103DB0001188BFF34F8FBFF36F8FFEE72169002992
:103DC000F0D000F003FB0028ECD004494FF0805005
:103DD0000860BFF34F8FBFF36F8FE3E704ED00E0A0
:103DE0002DE9FF4782B01D468A464FF000080400C7
:103DF00003D0BAF1000F08D011E0502080F31188F1
:103E0000BFF34F8FBFF36F8FFEE7206C38B15020A8
:103E100080F31188BFF34F8FBFF36F8FFEE7022D42
:103E20000AD1E06B012807D0502080F31188BFF33E
:103E30004F8FBFF36F8FFEE700F010FA3F4F4FF048
:103E400000094FF0805648B9049838B1502080F3EB
:103E50001188BFF34F8FBFF36F8FFEE7FFF7DAFCD8
:103E6000A06BE16B884207D3022D05D00498D0B136
:103E7000B8F1000F1AD01EE02A4651462046FFF73F
:103E800068F8616A19B104F1240000F09FFA20B1CA
:103E90003E60BFF34F8FBFF36F8FFFF7DBFC012056
:103EA00006B0BDE8F087FFF7D5FC22E06846FFF7D3
:103EB000AFFD4FF00108FFF7CDFCFFF72FFEFFF736
:103EC000A9FC94F94400401C01D184F8449094F971
:103ED0004500401C01D184F84590FFF7BBFC04A9C4
:103EE000684600F029F930B12046FFF7F1FA00F0FA
:103EF000A5FA0020D4E7FFF78DFCA06BE16B8842A8
:103F000013D1FFF7A7FC04F110000499FFF78EFD11
:103F10002046FFF7DDFA00F091FA00289ED13E60BE
:103F2000BFF34F8FBFF36F8F98E7FFF793FC2046E7
:103F3000FFF7CEFA00F082FA90E7000004ED00E00F
:103F40002DE9F0471F4690468946040003D0B9F199
:103F5000000F08D011E0502080F31188BFF34F8F7D
:103F6000BFF36F8FFEE7206C38B1502080F31188CB
:103F7000BFF34F8FBFF36F8FFEE7022F0AD1E06BC5
:103F8000012807D0502080F31188BFF34F8FBFF373
:103F90006F8FFEE7FFF7B6FC5020EFF3118680F33A
:103FA0001188BFF34F8FBFF36F8FA06BE16B884217
:103FB00006D3022F04D0002086F31188BDE8F087D5
:103FC00094F94550A06B3A4649462046FEF7C1FF9A
:103FD000681C04D06D1C84F845500120ECE7606A31
:103FE0000028FAD004F1240000F0F0F90028F4D001
:103FF000B8F1000FF1D00121C8F80010EDE7000082
:104000002DE9F747002683B08A46040003D0BAF1B1
:10401000000F08D011E0502080F31188BFF34F8FBC
:10402000BFF36F8FFEE7206C38B1502080F311880A
:10403000BFF34F8FBFF36F8FFEE700F00FF9DFF88C
:10404000F4804FF000094FF0805748B9059838B117
:10405000502080F31188BFF34F8FBFF36F8FFEE7BF
:10406000FFF7D8FBA56BC5B151462046FEF75EFFB2
:104070006D1EA563206950B104F1100000F0A6F98F
:1040800028B1C8F80070BFF34F8FBFF36F8FFFF7F1
:10409000E1FB012006B0BDE8F087059808B11EB12C
:1040A00006E0FFF7D7FB27E06846FFF7B1FC0126E3
:1040B000FFF7D0FBFFF732FDFFF7ACFB94F94400AC
:1040C000401C01D184F8449094F94500401C01D172
:1040D00084F84590FFF7BEFB05A9684600F02CF870
:1040E000002820460AD0FFF7F3F900F0A7F9204690
:1040F000FFF782F80028B3D00020CBE7FFF77CF869
:1041000090B104F124000599FFF790FC2046FFF7D9
:10411000DFF900F093F90028A2D1C8F80070BFF3CE
:104120004F8FBFF36F8F9BE72046FFF7D1F900F069
:1041300085F995E704ED00E02DE9F0410C46050016
:1041400011D0C4B1FFF766FB174BDA686E682068C0
:10415000911B471C17D02F681B6A9F4219D09642AB
:1041600017D8012410E0502080F31188BFF34F8F3F
:10417000BFF36F8FFEE7502080F31188BFF34F8F9E
:10418000BFF36F8FFEE70024FFF764FB2046BDE816
:10419000F081884205D9401A20602846FFF738FC94
:1041A000F1E700202060DCE7280000202DE9FF5F18
:1041B0008346DDE90E87994616468A469000FFF74A
:1041C000BDF905001CD05C20FFF7B8F9040014D03D
:1041D0000020256384F85900CDE90240CDE900872D
:1041E0004B46324651465846FEF76CFF2046FEF7D6
:1041F00009FE012004B0BDE8F09F2846FFF73EFB12
:104200004FF0FF30F6E7F0B585B0DDE90B640A9DAD
:10421000A6B1DCB15C2700972663022684F85960BA
:10422000002604AFCDE90246CDE90057FEF74AFF6C
:104230002046FEF7E7FD049805B0F0BD502080F35E
:104240001188BFF34F8FBFF36F8FFEE7502080F3CD
:104250001188BFF34F8FBFF36F8FFEE705484169A9
:1042600019B1006B18B1002070470120704702207F
:1042700070470000280000200148C0687047000017
:10428000280000202DE9F0412E4C0027206B28B19A
:10429000A069401CA0613846BDE8F081E668761C44
:1042A000E66013D1606B006838B1502080F311884C
:1042B000BFF34F8FBFF36F8FFEE7606BA16B61633E
:1042C000A063206A401C2062FFF782F8A06ADFF832
:1042D0007880864209D3606B0068A0B1606BC068CB
:1042E000C5686868864211D2A0622068C06A00EB87
:1042F000800158F82100012800D90127E069002831
:10430000C9D00127C7E74FF0FF30EDE7281DFFF7C1
:1043100025FAA86A18B105F11800FFF71FFAE86A34
:104320002169884200D9206100EB800108EB8100FF
:10433000291DFFF763FAE86A2168C96A8842CAD36F
:104340000127C8E7280000203003002070B50400D2
:104350004FF0000133D01B4D2868844207D0502015
:1043600080F31188BFF34F8FBFF36F8FFEE7206D8F
:1043700038B1401E2065E36CE26A9A421FD040B11A
:104380001DE0502080F31188BFF34F8FBFF36F8F74
:10439000FEE7201DFFF7E2F9E06CE062C0F13800B3
:1043A000A061E06A2969884200D92861064900EBCA
:1043B000800001EB8000211DFFF720FA0121084653
:1043C00070BD0000280000203003002070B5C068D8
:1043D000C46854B104F118000646FFF7BFF9144D44
:1043E000286B50B13146134815E0502080F31188F6
:1043F000BFF34F8FBFF36F8FFEE7201DFFF7AEF9BE
:10440000E06A2969884200D928610B4900EB8000E5
:1044100001EB8000211DFFF7F1F9E06A2968C96A04
:10442000884202D90120E86170BD002070BD000003
:1044300028000020B8070020300300202DE9F047B5
:104440002C4D00242746286B38B1FFF7E3F9286B81
:10445000401E2863286B40B146E0502080F311884D
:10446000BFF34F8FBFF36F8FFEE7A968224E012085
:10447000D1B3A6F5916980463068E0B1F068C468B0
:1044800004F11800FFF76AF9201DFFF767F9E06AE9
:104490002969884200D9286100EB800109EB81007D
:1044A000211DFFF7ABF9E06A2968C96A8842E3D3A6
:1044B000C5F81C80E0E70CB1FEF78AFFAC694CB18F
:1044C0004FEA0806FFF7DEFE00B1EE61641EF9D187
:1044D0000020A861E86938B1084901273807086059
:1044E000BFF34F8FBFF36F8FFFF7B4F93846BDE8C6
:1044F000F087000028000020B807002004ED00E04D
:1045000010B586B0FEF7E6FC114C2068B8B100206B
:104510000390049005AA04A903A8FFF73DF9DDE97B
:10452000032102208DE8070000230AA10B48059A09
:10453000FFF769FE606010B106B0012010BD502089
:1045400080F31188BFF34F8FBFF36F8FFEE700003A
:1045500064000020546D722053766300AD3400086F
:104560002DE9FF411E46134602000A9D4FF0000050
:1045700016D0144C2768002F0FD0CDE900130292FB
:10458000062917DAFFF76AFE02284FF000030FD062
:10459000002269462068FFF723FC04B0BDE8F081E3
:1045A000502080F31188BFF34F8FBFF36F8FFEE76A
:1045B0002A46EEE70023324669463846FFF7C0FC3C
:1045C000EBE700006400002021F00042A2F16052FD
:1045D000B2F5801F01F0004328BFD2F17F6C0BD9E8
:1045E0005FEA001C43EAC20242EB507018BF7047FA
:1045F00028BF20F001007047B2F5801FBCBF1846ED
:1046000070474FEA410C1CF5001F02D2084600F02B
:1046100068BB70B500F021FA00000089FFF7F6BF13
:104620004FF00040A0F580007047000010B591EAFF
:10463000030F48BF83F0004300F16C82841A71EBD2
:10464000030C05D2121943EB0C03001B61EB0C01A8
:10465000DFF824E14FEA1154A4EB135C1EEA430F88
:1046600018BF9EEA445F73D023EA0E03DCF1200EEC
:1046700021EA045143F4801332D322FA0CFE10EBEA
:104680000E0023FA0CFE41EB0E01CCF1200E03FAD2
:104690000EFE10EB0E0051F10001B1F5801FCCF1C0
:1046A000200E32D201EB045112FA0EF2BDE8104096
:1046B00058BF7047401C38BF5FEA420218BF7047BE
:1046C000002814BF20F0010041F100014FEA41032E
:1046D00013F5001F38BF7047A1F1C04100F00BBABD
:1046E000012A43EB0302ACF1200CDCF11F0E32BFB8
:1046F0004FF0000E23FA0CF310EB030041EB0451D2
:10470000B4EB115FD0D0A1EB045101F58011490841
:104710005FEA300001EB04510ED350F1000038BFC6
:1047200012FA0EFE08D1BDE81040C9E7401C38BFA0
:104730005FEA4202CAD1C3E7BDE810404FEA410335
:1047400013F5001F38BF7047A1F1C04100F0D3B985
:104750009EEA445F08D011EA5E0FBDE8104004BF36
:1047600001F0004100207047BDE8104070B500F036
:1047700074F900BF64FBBE3E0000E0FF2DE9C041BC
:1047800030B4DFF8A0C23CEA111418BF3CEA13149D
:1047900000F0EC8081EA03051CEA111444EAD574A8
:1047A00018BF1CEA131500F0C780A4EB05044FF0F6
:1047B000004545EAC12145EAC32341EA505143EA95
:1047C000525304F17F74994204F500344FEAC0203B
:1047D0004FEAC22208BF904200F09C804FEA136566
:1047E0000FF24016765D4FEA134506FB05F7C7F159
:1047F000807706FB07F74FEAD737A7FB03687642B7
:10480000C8F58038A7FB06CE38BFA8F1010807FB22
:1048100008E64FF0000EA6FB028CE6FB03CEDCF1AF
:10482000000CCEF1004E38BFAEF1010EA6FB0C58C5
:104830004FF000074FF00005E6FB0E87A1FB08C60E
:10484000A0FB07CE16EB0E0645F10005E1FB076560
:1048500015F1E04E7EBFA4F580345FEA46066D4157
:1048600016F1800745F100054FEA17274FEA066663
:1048700047EA0567A6F1DE46B6F1805F4FEA1525E7
:104880001FD9384624F0010C05EBC471BCF1FE6F52
:1048900001EB0C1102D8F0BCBDE8008124425CBFE2
:1048A00001F5801E9EEAC47F02D4F0BCBDE8008101
:1048B000244238D4F0BCA1F1C041BDE8004100F071
:1048C0001AB94FEAD22242EA43524FEAD323A7FB56
:1048D00002864FEAD02040EA415007FB03661EEAF9
:1048E0000E0F4FEAD12105FB026658BFA6EB00561A
:1048F000B6EB00564FEA520E4EEAC37E18EB0E0E90
:1049000056EB530EBDD518EB02085E417F1C55F1E6
:104910000005B6E74FF480154FF000074FF0000692
:104920004FF00008ADE7F0BC4FF0000001F1C041CE
:1049300001F00041BDE8008111EA0C1F0CEA1315DB
:1049400000D00CE013EA0C1F00F025804FF00000AF
:10495000F0BC81EA030101F00041BDE80081F0BC38
:10496000BDE8004181EA030100F0C5B8F0BCBDE834
:10497000004170B500F071F8097EFC3E00F007B808
:1049800081EA03014FF0000001F00041704781EA25
:10499000030100F0B0B8F0BCBDE800414FF00000EA
:1049A00021497047FFFDFBF9F7F5F4F2F0EEEDEB6E
:1049B000E9E8E6E4E3E1E0DEDDDBDAD8D7D5D4D31D
:1049C000D1D0CFCDCCCBCAC8C7C6C5C4C2C1C0BF69
:1049D000BEBDBCBBBAB9B8B7B6B5B4B3B2B1B0AF6F
:1049E000AEADACABAAA9A8A8A7A6A5A4A3A3A2A153
:1049F000A09F9F9E9D9C9C9B9A999998979796950E
:104A000095949393929191908F8F8E8E8D8C8C8BA9
:104A10008B8A898988888787868585848483838231
:104A2000828181800000FF070000F87F10F00042C3
:104A300048BF4042B0FA80F310FA03F10AD0C3F144
:104A40001D0303F580634FEA415002EB035202EB72
:104A5000D12170474FF0000070470EF1020E2EF08A
:104A6000030E5EF8046B364205D4012A43EB0305BE
:104A700015F5001F12D8012841EB010C1CF5001F91
:104A80000CD80ED14FEAD17C15F5001F0CEB4C0C65
:104A90000CF1020C08BF4CEBD37C04E04FF0080C87
:104AA00001E04FEAD37C0CEB4C0526FA05F606F044
:104AB0000706B6F1040C06D20EEB860CBDE870407A
:104AC0004CF0010C6047DFE80CF0090B02024FF0DC
:104AD00000414FF00000A1F5002170BD19461046BD
:104AE000012851EB010418BFD4F5001484BF002045
:104AF00001F0004170BD0808A0F500114FEA310136
:104B00007047000010B591EA030F48BF83F00043DF
:104B10003FF594AD841A71EB030C07D212198CF097
:104B2000004C43EB0C03001B61EB0C01DFF8A4E12C
:104B30004FEA1154A4EB135C1EEA430F18BF9EEA20
:104B4000445F00F0B08023EA6E03524221EA045130
:104B5000C3EB6E0338BF5B1EDCF1200E25D322FAB7
:104B60000CFE10EB0E0043FA0CFE41EB0E01CCF1F3
:104B7000200E03FA0EFE10EB0E0051F10001CCF1F5
:104B8000200E29D412FA0EF201EB0451BDE81040B8
:104B900058BF7047401C1CBFB2F1004F704700283F
:104BA0000CBF491C20F00100704712EB020E43EBD2
:104BB000030218BF4FF0010E4EEA4202ACF1200C86
:104BC000DCF11E0E54D943FA0CFE10EB0E0051F12D
:104BD000FF31CCF11E0ED5D50EF1010E12FA0EFEEC
:104BE000404141EB010101EB445C5FEA5C5C10D9A0
:104BF00010EBDE7001EB045138BFBEF1004FBDE891
:104C0000104018BF704700280CBF491C20F001005D
:104C1000704730D24FEAD42C11F5001124F400640F
:104C20001BD0B1FA81F20B3AA41AA41ED2F12003D0
:104C3000914030FA03F31943904001EBCC71002C02
:104C400001EB0451BDE81040A8BF704701F1C0411D
:104C50004FF0000001F000417047B0FA80F310FA05
:104C600003F100D110BDE41A173C4805C90AE4E776
:104C700001EB045110BD491001EB0451BDE8104097
:104C80004FEA300002E04FF0000170474A0008BFD1
:104C90000042F8D0B2F5001F28BF704701F0004174
:104CA0004FF0000070479EEA445F07D011EA5E0FA4
:104CB000BDE8104004BF002100207047BDE810404F
:104CC00070B5FFF7CAFE00BF40DFF63E83F000413B
:104CD000104670470000E0FF4FF04070E1EE100A10
:104CE0007047FF2141EAD050C0057047304D0008A1
:104CF00000000000000000000000000000000000B4
:104D00000002000018000000000000000000000089
:104D1000000610160006101600000000000000003B
:104D20000102030406070809000000000102030451
:104D300064656661756C745461736B005C4D00084A
:104D400000000020A8000000C4010008044E000874
:104D5000A800002080510000E001000800000000D1
:104D600000000000000000000000000023DB793E8E
:104D70003333034201000000100000000000000077
:104D80000024F4000000000000000000000000000B
:104D90000000000000000000000000000000000013
:104DA0000000000000000000000000000000000003
:104DB00000000000000000000000000000000000F3
:104DC00000000000000000000000000000000000E3
:104DD00000000000000000000000000000000000D3
:104DE00000000000000000000000000000000000C3
:104DF000000000000000000000000000AAAAAAAA0B
:044E000000000000AE
:040000050800018965
:00000001FF
